S00E00005256425A76322E737265632A
S11300008CC40000B0C40000AEC40000ACC4000046
S1130010AAC40000A8C40000A6C40000A4C4000030
S1130020A2C40000A0C400000C9461189CC4000089
S11300300C94481D0C94161D96C4000094C4000032
S113004092C4000090C400008EC400008CC4000060
S11300508AC4000088C4000086C4000084C4000070
S113006082C4000080C400007EC400007CC4000080
S11300707AC4000078C4000076C4000074C4000090
S113008072C4000070C400006EC400006CC40000A0
S11300906AC4000068C4000066C4000064C40000B0
S11300A062C4000060C400005EC400005CC40000C0
S11300B05AC400000C94101E0C94DE1D54C400009D
S11300C052C4000050C400004EC400004CC40000E0
S11300D04AC4000048C4000046C4000044C40000F0
S11300E042C4000040C400003EC400003CC4000000
S11300F03AC4000038C4000036C4000034C4000010
S113010032C4000030C400002EC400002CC400001F
S11301102AC4000028C4000026C4000024C400002F
S113012022C4000020C400001EC400000C94AC1DB6
S11301300C947A1D18C4000016C400000C94D41A40
S113014012C4000010C400000EC400000CC400005F
S11301500AC4000008C4000006C4000004C400006F
S113016002C4000000C40000FEC30000FCC3000081
S1130170FAC30000F8C30000F6C30000F4C3000093
S1130180F2C30000F0C30000EEC30000ECC30000A3
S1130190EAC30000E8C30000E6C30000E4C30000B3
S11301A0E2C30000E0C30000DEC30000DCC30000C3
S11301B0DAC30000D8C30000D6C30000D4C30000D3
S11301C0D2C30000D0C30000CEC30000CCC30000E3
S11301D0CAC30000C8C30000C6C30000C4C30000F3
S11301E0C2C30000C0C30000BEC30000BCC3000003
S11301F0BAC300000C94880EB6C300003C62723E81
S1130200001B5B25753B2575481B5B304B003C622E
S1130210723E000D0A00485454502F312E302032C3
S11302203030204F4B0D0A436F6E74656E742D543D
S11302307970653A20746578742F68746D6C0D0A52
S11302400D0A3C666F6E743E001B5B25753B25757D
S1130250481B5B304B001B5B306D1B5B324A1B5BE6
S1130260316D1B5B336D1B5B3F32356C003C666F3D
S11302706E7420636F6C6F723D226D6167656E747E
S113028061223E003C666F6E7420636F6C6F723D3A
S113029022726564223E003C666F6E7420636F6C4C
S11302A06F723D22707572706C65223E003C666F01
S11302B06E7420636F6C6F723D22677265656E2287
S11302C03E003C2F666F6E743E001B5B751B5B33F8
S11302D0356D001B5B731B5B33316D001B5B731B44
S11302E05B33366D001B5B731B5B33326D001C0389
S11302F04C005500460041002000430044004300E8
S11303002000440065006D006F00000018034400E5
S1130310650061006E002000430061006D0065000F
S11303207200610000000403090409023E00020196
S113033000C032090400000102020100052400107B
S113034001042402060524060001070582030800AF
S1130350FF09040100020A0000000705040240002E
S11303600507058302400005120110010200000880
S1130370EB03442001000102DC01256C752C2025CF
S1130380752C2025752C20256C7500446576253246
S113039075422D253275423A2535642C2535642C59
S11303A02535752C253564206D410044657625324C
S11303B075412D253275413A2535642C2535642C3B
S11303C02535752C253564206D4100286F66662916
S11303D000286F6E2900416C61726D3A20005469E7
S11303E06D653A2020005053553A20253564206D20
S11303F0562C204C6F61643A20253564206D4100F1
S1130400426F6172643A2025752C204350553A207E
S1130410252E316625252C2054656D703A20252E15
S113042031662043002028257329004465766963DA
S1130430653A2025732C20253275202F202532750E
S1130440004D656E753A20257300583A20666F7228
S11304506365207265626F6F7420616C6C206465E3
S11304607669636573005A3A207365742063686122
S11304706E6E656C20616C6C20646576696365736F
S113048000463A20666F726365207265626F6F740E
S113049000473A20736574206368616E6E656C0072
S11304A0592C4E2C4C3A206661766F726974652C17
S11304B0206F7074696F6E2C207363686564756C4B
S11304C06500552C492C4A2C4B3A207265642C202B
S11304D0677265656E2C2079656C6C6F772C206271
S11304E06C756500563A20766F6C756D65004D3AF3
S11304F0206D656E7500483A20686F6D6500433A5B
S11305002063616E63656C00423A206261636B0034
S11305104F3A206F6B00503A20706F7765722062FB
S11305207574746F6E00272C27202F20272E273AEE
S1130530206368616E6E656C20707265762F6E65DF
S1130540787400302D393A206469676974730057F0
S11305504153443A206172726F77206B657973005E
S1130560446174613A202725732700616C61726DC0
S1130570206F6E2C20616C61726D206F6666007353
S11305806574206265696E2C207365742068756DCE
S113059061782C20736574206D62630072657365E5
S11305A074202F2072657374617274202F20726519
S11305B0626F6F7400697020612E622E632E640076
S11305C0616C61726D20683A6D3A730074696D658F
S11305D020683A6D3A73006461746520793A6D3A23
S11305E064005744543A2025752C2052414D3A203A
S11305F025642C2049443A2030782530386C780022
S11306004275696C643A20536174204465632030F8
S1130610392030333A35383A3036203230313700E9
S11306205072657373205320746F206D6F64696614
S1130630792073657474696E67730050726573739F
S113064020537061636520746F2073656E6420723B
S1130650656D6F746520636F6D6D616E6400526FBC
S11306606F6D73204572726F7221009F0684067F3E
S1130670067B069F069A0691068A066D62630062EF
S113068065696E0068756D61780072656D6F74657B
S11306900073657474696E6773006D61696E006ED2
S11306A06F6F6E65003F003F003F003F003F003F1B
S11306B0003F003F004265696E2036004265696E66
S11306C02035004265696E2034004265696E20372A
S11306D0004265696E2038004265696E203300422D
S11306E065696E2032004265696E2031004D4243D7
S11306F0204D6178004D42432034004D4243205048
S1130700004D42432032004265696E204D31004D58
S1130710424320447261004265696E204D32004DAF
S1130720424320310025752100556E6B6E6F776E44
S113073021005761746368646F6721005370696BAB
S1130740652100536F6674776172652100506F777D
S113075065722D4F6E21004465627567205379736D
S113076074656D2100556E646572766F6C74616793
S113077065210045787465726E616C210057617261
S11307806E696E673A20756E6B6E6F776E206D6959
S113079063726F636F6E74726F6C6C657220494420
S11307A03A2030782530386C7820004861726477BC
S11307B061726520496E697469616C697A65642E39
S11307C000253034752D253032752D2530327520B5
S11307D000253032753A253032753A25303275208D
S11307E0000D0A1B5B304B4170706C696361746966
S11307F06F6E205374617274656421000D0A1B5B73
S1130800304B4576656E74206F766572666C6F77D3
S1130810206572726F7221006E616E00696E6600EF
S113082000407A10F35A00A0724E18090010A5D4A3
S1130830E80000E87648170000E40B54020000CA00
S11308409A3B000000E1F505000080969800000046
S113085040420F000000A0860100000010270000A5
S11308600000E803000000006400000000000A002B
S1130870000000000100000000002C76D888DC672E
S11308804F0823DFC1DFAE59E1B1B796E5E3E45386
S1130890C63AE651997696E8E6C28426EB898C9BA3
S11308A062ED407C6FFCEFBC9C9F40F2BAA56FA543
S11308B0F490055A2AF75C936B6CF9676DC11BFCC5
S11308C0E0E40D47FEF520E6B500D0ED902E0300E0
S11308D0943577050080841E080000204E0A00002D
S11308E000C80C333333330F986E12831141EF8DEC
S11308F02114893BE65516CFFEE6DB18D1844B382C
S11309001BF77C1D901DA4BBE424203284725E225C
S11309108100C9F124ECA1E53D2711241FBECFEFCE
S1130920CDBFDFE3DEBF00E00CBF18BE19BE1ABEA8
S11309301BBE12E2A0E0B0E2E4E1FBE400E00BBF86
S113094002C007900D92A23BB107D9F71BBE29E262
S1130950A2EBB2E201C01D92A732B207E1F70E94F6
S11309605B0F0C9488254CCB0F931F93CF93DF938D
S11309708093B2229093B32220EC31E092E0F9010B
S11309809287E0E2F0E0E491C0E0D2E0EC87E1E2BB
S1130990F0E0E491ED87E4E2F0E0E491A0E4B2E079
S11309A01C96EC931C97E5E2F0E0E4911D96EC9321
S11309B01D97F901128600E016E08FEFF801868397
S11309C0828320E236E083EFF9018683828360E24A
S11309D077E040E1FB014683418387E0F801808BA7
S11309E0818B828B838B848B858B868B878BF901A0
S11309F0808B818B848B858B868B878BFB01848B8F
S1130A001AA21AA61AAA1AAE92961C9292979A96AB
S1130A101C929A97D2961C92D297DA961C92DA97E5
S1130A2098A398A798AB98AF90969C939097989614
S1130A309C939897D0969C93D097D8969C93D8974C
S1130A4085E089A389A789AB89AF85E491968C93C6
S1130A50919799968C939997D1968C93D197D9968F
S1130A608C93D997498380E38A831B829C83119654
S1130A704C93119712968C93129713961C9213977A
S1130A8014969C93149781E088838C93DF91CF9183
S1130A901F910F91089586E592E09F938F930E9492
S1130AA07C241F9282E08F931F9283E18F9389E4C9
S1130AB092E09F938F930E947C248DB79EB70896F3
S1130AC08DBF9EBF089588E592E0E5EBF2E2DF0179
S1130AD09C011D9221503040E1F766E172E08BEEFB
S1130AE092E20E94172488E690E080930D2590936B
S1130AF00E2510920F25109210250895CCDFE3CF18
S1130B00089520910D2530910E2587E592E0821BF2
S1130B10930B1816190614F080E090E00895DF9204
S1130B20EF92FF920F931F93CF93DF938C017B017E
S1130B30DFB6F894E6DFBC01892B81F0CDE0D5E285
S1130B40888199819701A8018B549D4D0E94B124FD
S1130B5028813981820F931F88839983DFBEDF91B7
S1130B60CF911F910F91FF90EF90DF9008951F9305
S1130B70CF93DF93CDB7DEB7BE01695F7F4FFB0133
S1130B8081919191BF011FB7F894C9DF1FBFDF9115
S1130B90CF911F910895CF93C82F8091B4228111D2
S1130BA004C081E08093B42207C082EC92E09F935A
S1130BB08F93DDDF0F900F90C13071F028F0C230B9
S1130BC099F0C330C9F01FC08DEA92E09F938F93D0
S1130BD0CEDF0F900F9017C087E992E09F938F9319
S1130BE0C6DF0F900F900FC084E892E09F938F931D
S1130BF0BEDF0F900F9007C08DE692E09F938F9316
S1130C00B6DF0F900F90CF910895CF93C82FC3DF15
S1130C10C13079F028F0C230A9F0C330E1F023C02C
S1130C2085EE92E09F938F930E947C240F900F9007
S1130C301AC08CED92E09F938F930E947C240F90B6
S1130C400F9011C083ED92E09F938F930E947C24B8
S1130C500F900F9008C08AEC92E09F938F930E94AC
S1130C607C240F900F90CF910895DF92EF92FF9222
S1130C700F931F93CF93DF93CDB7DEB78E01055F3C
S1130C801F4FF801E190F1908F01DFB6F894AF01A6
S1130C90B70180912329909124290E94A324B801AB
S1130CA0C7013DDFDFBEDF91CF911F910F91FF9010
S1130CB0EF90DF900895DF92EF92FF920F931F93CE
S1130CC0CF93DF93CDB7DEB78E01055F1F4FF801D9
S1130CD0E190F1908F01DFB6F89483E192E09F9365
S1130CE08F930E947C248EE092E09F938F933FDF4A
S1130CF0A801B70180912329909124290E94A3245B
S1130D00B801C7010CDFDFBE0F900F900F900F905A
S1130D10DF91CF911F910F91FF90EF90DF90089595
S1130D20DF92EF92FF920F931F93CF93DF93CDB790
S1130D30DEB70B851C85ED84FE84DFB6F8948091C4
S1130D400F25801304C0809110258117A9F01F92EC
S1130D501F931F920F9381E092E09F938F930E94C1
S1130D607C242CEF31E03F932F9301DF00930F2578
S1130D7010931025CDBFDEBFAE01415F5F4FB701B9
S1130D8080912329909124290E94A324BE01615FAC
S1130D907F4FC701C4DEDFBEDF91CF911F910F915A
S1130DA0FF90EF90DF9008950F93CF93DF931F92FE
S1130DB0CDB7DEB72FB72983F8941BBEFC0108ED2D
S1130DC004BF608389818FBF0F90DF91CF910F9112
S1130DD008956F71862B809355000895682B81E4E4
S1130DE090E0E2CF08950F931F93CF93C82F00E4B0
S1130DF010E0F8016081687F682B80E490E0D4DF24
S1130E00F80180818C23CF911F910F910895292F90
S1130E1033272230310559F02330310569F0213070
S1130E20310529F582E190E028E633E029C08EE31C
S1130E3090E02AE233E024C099278130910559F0EB
S1130E408230910571F0892BB9F4E6E2F3E08491E4
S1130E5090E09F0115C0ECE0F3E0849190E09F01E5
S1130E600FC0EEEEF2E0849190E09F0109C080E0B3
S1130E7090E020E030E004C080E090E020E030E04A
S1130E80FA01208331830895CF93DF93EC01FC01B1
S1130E9070968BE0DF011D928A95E9F782E08C83DE
S1130EA0898783E08E8761E0CE010196D5D58823BA
S1130EB051F061E0CE010696CFD5882321F061E0A0
S1130EC0CE010B96C9D5DF91CF910895CF93FC0144
S1130ED090911E269430F9F484899589A689B7895E
S1130EE0892B8A2B8B2BC9F0C62F8181ABD480919F
S1130EF0272690912826FC01EF5BFF4F2081319734
S1130F008081281720F056D450D6811107C08C2F29
S1130F1089D480E003C082E001C082E0CF910895CB
S1130F20FB01682F84859585D1DF21E030E08111B4
S1130F3002C020E030E088279927821B930B089594
S1130F40CF93DF93FC0190911E269430D1F58489D0
S1130F509589A689B789892B8A2B8B2BA1F181814D
S1130F6071D480912B2688234CF4E0912726F091AC
S1130F702826EF5BFF4F808190E00DC0209127264B
S1130F8030912826F901E05CFF4F80813196208161
S1130F9090E0821B9109892BC1F0809127269091C2
S1130FA02826FC01EF5BFF4FD0813197C08102D42A
S1130FB0DC1768F0FAD5C82F81110BC0FBD38C2F36
S1130FC008C082E006C082E004C080E002C080E085
S1130FD000C0DF91CF910895CF93DF93FC019091EE
S1130FE01E26943081F484899589A689B789892B32
S1130FF08A2B8B2B41F0EF01818124D463D4882385
S113100011F0CE019DDFDF91CF910895CF93DF934F
S1131010FC0190911E26943009F048C0848995897A
S1131020A689B789892B8A2B8B2B09F442C0868128
S113103009D454D4882309F43FC080912B268823F3
S11310404CF4E0912726F0912826EF5BFF4FC081F6
S1131050D0E00DC08091272690912826FC01E05C09
S1131060FF4FC08131968081D0E0C81BD109209701
S113107011F4B9D323C080912B2688234CF4E0913A
S11310802726F0912826EF5BFF4FC081D0E016C0E1
S11310908091272690912826FC01E05CFF4FC081B7
S11310A031968081D0E0C81BD10908C0C0E0D0E0EF
S11310B005C0C0E0D0E002C0C0E0D0E0CE01DF91C6
S11310C0CF910895CF93DF9320911E26243009F009
S11310D052C0FC014489558966897789452B462B82
S11310E0472B09F44BC08681ADD3F8D3882309F488
S11310F048C080912B2688234CF4E0912726F09158
S11311002826EF5BFF4F808190E00DC020912726B9
S113111030912826F901E05CFF4F808131962081CF
S113112090E0821B9109892B21F06CD3C82FD0E069
S113113002C0CFEFDFEF80912B2688234CF4E0919F
S11311402726F0912826EF5BFF4F208130E00DC069
S11311504091272650912826FA01E05CFF4F208118
S11311603196808130E0281B3109232B69F43BD36D
S11311708C2F9D2F0BC08FEF9FEF08C08FEF9FEF39
S113118005C08FEF9FEF02C08C2F9D2FDF91CF9171
S11311900895FC018485958595DF992314F48EEFD9
S11311A09FEF0895FB012EE0DB011D922A95E9F7DC
S11311B023E0238320E937E02087318729EC38E0D6
S11311C0228733878487958708950895FF920F9324
S11311D01F93CF93DF93EC019AD3882309F47EC045
S11311E0288130E08091232690912426821793074A
S11311F009F074C080912026813259F018F48032AD
S113120029F16CC0823209F450C0833209F45CC005
S113121065C080911F26813A09F060C091D352D3F2
S11312208823E9F38C89FD880E891F89FBD28F2DD1
S1131230F9D2802FF7D2812FF5D2888DF3D2898D00
S1131240F1D28A8DEFD2B6D299D448C080911F26AC
S1131250813209F043C074D305C080911E268823CF
S113126009F43CC03BD38823C1F3CCD2F82ECAD2B4
S1131270182FC8D2082FC6D2402F50E060E070E08B
S1131280BA0155274427782B4F29512B4C8B5D8B62
S11312906E8B7F8BB7D2888FB5D2898FB3D28A8F6A
S11312A0A2D26CD4CE0191DF19C080911F26813265
S11312B0A9F446D363D48091212690912226888B69
S11312C0998BCE0182DF0AC080911F26813231F4CE
S11312D037D354D460912126CE0177DFDF91CF91AB
S11312E01F910F91FF900895EF92FF920F931F9318
S11312F0CF93DF93CDB7DEB7EA97CDBFDEBF0FE163
S113130016E20F2EF7E2EF2EF6E2FF2EF02D7AD240
S1131310F80181938F01EE15FF05C9F70E94131799
S1131320F6D2882309F4FEC0EFE1F6E290818181D0
S1131330853009F46BC030F4813091F168F083306A
S113134079F1F0C0883009F4C5C0893009F4CBC004
S1131350863009F0E7C06EC0903821F0923809F069
S1131360E1C008C010911B2680911C26882381F0BF
S113137012600EC0809123268F7064D2E0912926DA
S1131380F0912A26118112FB112710F980E05AD21C
S1131390D7D2812F47D280E045D20CD2EFD3C2C03E
S11313A0992309F4C5C0923009F0BCC0C6C091E0CD
S11313B0833009F090E090931C2623C0E09123260B
S11313C01E2F1F7009F4AEC0812F3CD280912026BD
S11313D0833011F4E1D215C0E0912926F0912A2638
S11313E081818B7F818324E8129FF0011124E359CA
S11313F0F94D1082E0912926F0912A2680818E7F72
S1131400808380E01FD29CD2B9D38CC091118AC052
S1131410109121261F7794D2B1D354D28823E9F3B3
S11314201093C304111102C082E001C083E08093D1
S11314301E2678C09058923008F074C080912126FE
S1131440909122268C3DE3E09E07A1F583E08A83F8
S11314508AE389837FB7F894AE014D5F5F4F20E044
S113146038E0A0ECB1E062E01A966C931A97E32F8F
S1131470F0E084911A961C921A9720FF03C082957B
S11314808F703F5F8F708A3018F090E0C79602C06B
S113149090E0C096FA0181939193AF012F5F2C31B4
S11314A019F77FBF4DD26AE370E0CE01019665D093
S11314B09AD138C0AE014F5F5F4F60912326A7DCFD
S11314C08C01892B79F13CD2B80189819A81E2D0CF
S11314D08AD128C0903831F533D280911A26A2D10E
S11314E069D14CD31FC091111DC080912126823037
S11314F0C8F426D28091212680931A263FD3809166
S11315001A26882321F084E080931E2609C0809146
S1131510C304811102C081E001C084E080931E26CF
S11315200E940E17F4D1882371F00AD235D20BC071
S1131530909121269130B1F73ACF809121268823CA
S113154009F43CCF5ECFEA96CDBFDEBFDF91CF91E9
S11315501F910F91FF90EF900895CF9380911E26D5
S1131560882349F0C0912B2680E06CD1D0D1811121
S1131570BBDE8C2F67D1CF910895CF92DF92EF928B
S1131580FF920F931F93CF93DF93C82ED92E8B0115
S113159080912B26806856D1C0912526D09126268D
S11315A0C017D10738F00115110519F403D1E8016A
S11315B001C0E801EC2CFD2CD12C44C080911E26E6
S11315C0882309F453C0853009F452C0A0D1811195
S11315D051C084D1811145C075D1882399F180917E
S11315E02B26882374F4E0912726F0912826EF5BBC
S11315F0FF4F008110E02097F1F00830110578F0DA
S11316001AC08091272690912826FC01E05CFF4FA8
S113161000813196808110E0081B1109ECCFF7019D
S113162081917F01FFD021970F5F1F4F209719F001
S113163008301105A1F7DD24D3940830110509F011
S1131640D12CB8D0209709F0B9CFD110B7CF09C0A9
S113165080911E26882381F0853081F058D1811134
S11316600FC03CD18823A1F380E00BC082E009C005
S113167083E007C081E005C082E003C083E001C0CD
S113168081E0DF91CF911F910F91FF90EF90DF9058
S1131690CF900895DF92EF92FF920F931F93CF9311
S11316A0DF93E82EF92E8B0180912B268068CAD017
S11316B0C0912526D0912626C017D10738F00115F0
S11316C0110519F477D0E80101C0E8010E2D1F2D92
S11316D0D12C49C080911E26882309F458C0853036
S11316E009F457C014D1811156C0F8D081114AC0F1
S11316F0E9D08823C1F180912B2688237CF4E091E2
S11317002726F0912826EF5BFF4FE080F12C2097ED
S113171011F188E0E816F10478F01DC080912726C5
S113172090912826FC01E05CFF4FE0803196808197
S1131730F12CE81AF108EBCFF801849173D00F5F14
S11317401F4F2197FFEFEF1AFF0A209721F088E03F
S1131750E816F10489F7DD24D394E8E0EE16F104E9
S113176009F0D12C27D0209709F0B4CFD110B2CFF3
S113177009C080911E26882381F0853081F0C7D06E
S113178081110FC0ABD08823A1F380E00BC082E0AD
S113179009C083E007C081E005C082E003C083E0A4
S11317A001C081E0DF91CF911F910F91FF90EF90E5
S11317B0DF900895E0912926F0912A26A09127260A
S11317C0B0912826AF5BBF4F8C9190E082839383C6
S11317D080818D798083E0912726F0912826EF5B24
S11317E0FF4F10820895E0912926F0912A268081E6
S11317F08D798083E0912726F0912826EF5BFF4FB7
S1131800108208958091272690912826FC01EF5B91
S1131810FF4F208131E0320F3083FC01E20FF11DD4
S1131820808108952091272630912826F901EF5BC5
S1131830FF4F908141E0490F4083F901E90FF11D09
S11318408083089580932B26282F2F7030E04091B9
S1131850C6045091C7048823E4F464E8629FC0017D
S1131860639F900D11248259994D8093272690935C
S11318702826C90182959295907F9827807F982782
S113188008969A01280F391F2093292630932A2677
S1131890089564E8629FC001639F900D1124845DE4
S11318A0994D809327269093282622953295307F50
S11318B03227207F3227240F351F20932926309387
S11318C02A26089580912B268068BCDFE091292682
S11318D0F0912A26808186958170089580912B2627
S11318E08F77B0DFE0912926F0912A26808185FF49
S11318F00CC0809127269091282622813381FC01F7
S1131900E05CFF4F208381E0089580E0089580919A
S11319102B268F7797DFE0912926F0912A26808164
S113192084FF0CC080912726909128262281338140
S1131930FC01E05CFF4F208381E0089580E008957E
S113194080912B268F777EDFE0912926F0912A263D
S113195080818D788083E0912926F0912A268081E8
S113196081608083E0912726F0912826EF5BFF4F6A
S1131970108280912B26806865DFE0912926F09102
S11319802A26808181608083E0912726F091282691
S1131990EF5BFF4F10820895E0912926F0912A26EB
S11319A0818184608183E0912926F0912A268181B6
S11319B0807C803459F480912B26805843DFE09159
S11319C02926F0912A2681818460818308951F93BA
S11319D0CF93DF93D82F162FC42F34DFE09129261D
S11319E0F0912A261182E0912926F0912A26DD23FE
S11319F0A4F01082E0912926F0912A261183E09127
S1131A002926F0912A26128213828091272690910A
S1131A1028268483958340E014C082E08083E0918B
S1131A202926F0912A261183E0912926F0912A266D
S1131A30128213828091272690912826848395838D
S1131A404C2FFC01E05CFF4F40833196108281E013
S1131A50DF91CF911F910895AF92BF92CF92DF9201
S1131A60EF92FF920F931F93CF93DF93662309F4B2
S1131A7055C0A62E7C018C0184E0E80EF11CB12C2B
S1131A80F801C080CC2009F43FC0C181D281F701A4
S1131A9031978081F7019081923010F448E001C0C1
S1131AA048E1C930D10550F028E030E090E09F5F74
S1131AB0220F331F2C173D07D0F301C090E0942B65
S1131AC02C2D2F7030E02530310554F59F7EC13424
S1131AD0D10540F5882319F0813021F006C09064C7
S1131AE0D92E07C0906CD92E09C09068D92E8111C7
S1131AF005C04C2F6D2D80E88C0D69DF4C2F6D2DAA
S1131B008C2D65DF882379F0B3940B5F1F4FF5E0CC
S1131B10EF0EF11CBA10B4CF81E005C081E003C020
S1131B2080E001C080E0DF91CF911F910F91FF9081
S1131B30EF90DF90CF90BF90AF90089520E030E019
S1131B40A0ECB4E01696ED91FC911797C90182952B
S1131B509295907F9827807F9827E80FF91F118628
S1131B6016964D915C911797FA01E80FF91F1182AF
S1131B702F5F3F4F2530310529F7089580911F26A7
S1131B80882374F404C080911E26882369F0A6DE9D
S1131B908823C9F328CE089580911E26882321F036
S1131BA091DE8823C9F306CE0895FF920F931F9305
S1131BB0CF93DF93E091C604F091C704E05BFF4F3D
S1131BC0C081D181FF24F39400EC14E002C0F22E12
S1131BD0EC0180912B26882324F474DE882321F0E1
S1131BE022C07CDE811121C080911E268823F9F059
S1131BF08530F9F0E0912926F0912A26818182FD31
S1131C001AC0D8011696ED91FC911797E05BFF4F2F
S1131C1080819181C817D907D9F22FEF2F0DF110C8
S1131C20D6CF84E009C080E007C080E005C082E030
S1131C3003C083E001C081E0DF91CF911F910F9138
S1131C40FF900895CF93DF93E0E4F0E01482848161
S1131C508360848350D056D0C0ECD4E088818F77E1
S1131C60888388818068888310921E2610921A26A1
S1131C7010921C2610921B2688818064888348E079
S1131C8068E480E8A4DE48E068E480E0A0DE8885BB
S1131C9080648887898181608983DF91CF910895E9
S1131CA0CF93DF932FB7F894C0ECD1E082E08A871A
S1131CB0EAE1F0E0E491A0ECB4E0DA96EC93DA9790
S1131CC0EBE1F0E0E491DB96EC93DB971A8681EC90
S1131CD098E28E7F16968D939C93179784E18C934C
S1131CE083E018968C932FBF81E080931D26AADF92
S1131CF0DF91CF910895E0ECF4E0808583708087D4
S1131D0011860895E0ECF4E08FEF828784870895CC
S1131D101F920F920FB60F92112408B60F9218BE9D
S1131D2009B60F9219BE0BB60F921BBE2F933F93A9
S1131D304F935F936F937F938F939F93AF93BF93CF
S1131D40EF93FF938091CA0486FF07C080E48093D9
S1131D50CA0410921E260E940A178091CA0485FFA5
S1131D6016C080E28093CA0480911A26882321F049
S1131D7084E080931E2609C08091C304811102C0AF
S1131D8081E001C083E080931E260E9406178091A3
S1131D90CA0484FF15C0E0ECF4E080E1828782E0AD
S1131DA080931E2610921A261382C8DE48E068E447
S1131DB080E80DDE48E068E480E009DE0E940D174B
S1131DC0FF91EF91BF91AF919F918F917F916F910F
S1131DD05F914F913F912F910F900BBE0F9009BED1
S1131DE00F9008BE0F900FBE0F901F901895CF92C2
S1131DF0DF92EF92FF920F931F93CF93DF938FB7EE
S1131E00F894C0912008D0912108009160081091A5
S1131E1061088FBFDC2FCC27AE0160E070E0C80101
S1131E20A0E0B0E0DC01992788276A017B01C82A79
S1131E30D92AEA2AFB2AC701B60128EE33E040E09A
S1131E4050E00E941D238091112590911225A091AC
S1131E501325B091142569017A01C81AD90AEA0A2E
S1131E60FB0AD701C6012093112530931225409314
S1131E701325509314255F934F933F932F931F93F0
S1131E800F93DF93CF93BF93AF939F938F938AE77F
S1131E9093E09F938F930E945B068DB79EB70E9637
S1131EA08DBF9EBFDF91CF911F910F91FF90EF9057
S1131EB0DF90CF900895AED3E0E4F8E010828CE098
S1131EC081872FEF3FEF26A337A39CE3938380837F
S1131ED090EC90938401E0E0F8E01082818726A3DF
S1131EE037A380E3838381E0808327EF3EE040E0F3
S1131EF064E670E080E090E00E9405190E94631996
S1131F0080E090E00895CF92DF92EF92FF920F93DA
S1131F101F93CF93DF9381E00E94050680913625BD
S1131F208230F9F0833009F49BC0813009F02DC16F
S1131F308BE396E09F938F93C2E0CF9389E08F93D6
S1131F400E94900680E296E09F938F93CF938AE05D
S1131F508F930E9490068DB79EB708968DBF9EBF43
S1131F601CC180E096E09F938F93C2E0CF930F2E25
S1131F70F9E0FF2EF02DFF920E94900608E110E296
S1131F80F801D485E584D684C78441D6CF92DF9204
S1131F90EF92DF939F938F93F80181891F928F9320
S1131FA082EE95E09F938F93D9E2DF93FF920E9494
S1131FB0900687ED95E09F938F93CF930F2EFBE0D0
S1131FC0FF2EF02DFF920E9490068CEC95E09F93DB
S1131FD08F93CF930CE00F930E94900680EC95E0D2
S1131FE09F938F93CF931DE01F930E94900685EBE0
S1131FF095E09F938F93CF938EE08F930E949006EA
S11320008DB79EB780968DBF9EBF8CE995E09F9358
S11320108F93DF93FF920E9490068FE795E09F9342
S11320208F93DF930F930E9490068BE695E09F9326
S11320308F93DF931F930E94900685E195E29F930F
S11320408F9380E695E09F938F93CF9380E18F9356
S11320500E949006EDB7FEB77296EDBFFEBF9DC01D
S11320608FE495E09F938F93D2E0DF9319E01F9361
S11320700E94900683E495E09F938F93C9E2CF93E7
S11320801F930E94900686E295E09F938F93DF93BF
S11320901AE01F930E94900686E195E09F938F9328
S11320A0CF931F930E94900680E195E09F938F93B6
S11320B0DF931BE01F930E94900688E095E09F93B6
S11320C08F93CF931F930E9490068EEF94E09F937B
S11320D08F93DF931CE01F930E94900686EF94E099
S11320E09F938F93CF931F930E9490068DB79EB7B3
S11320F080968DBF9EBF8EEE94E09F938F93DF9367
S11321001DE01F930E94900684EE94E09F938F93AA
S1132110CF931F930E94900682EC94E09F938F9339
S1132120DF931EE01F930E94900680EA94E09F9341
S11321308F93CF931F930E94900681E994E09F931D
S11321408F93DF931FE01F930E94900681E894E031
S11321509F938F93CF931F930E94900686E694E0FB
S11321609F938F93DF93D0E1DF930E9490068AE4DC
S113217094E09F938F93CF93DF930E949006EDB7E3
S1132180FEB7B096EDBFFEBF08C08EE596E09F9304
S11321908F930E945B060F900F9083E00E940506C8
S11321A0DF91CF911F910F91FF90EF90DF90CF902F
S11321B008956F927F928F929F92AF92BF92CF9227
S11321C0DF92EF92FF920F931F93CF93DF93CDB7DC
S11321D0DEB76497CDBFDEBF0E94630580E00E9436
S11321E00506E0913625F0E0EE0FFF1FED58F94F9C
S11321F065917591CE0101967C010E941724FF928E
S1132200EF9281E494E09F938F9312E01F931F93C6
S11322100E9490060F2EF8E1CF2EF0E2DF2EF02D73
S1132220E091BC20F0E0EE0FFF1FE559F94F6591F6
S11322307591C7010E9417248091BE201F928F932D
S11322400F2EFDEBAF2EF0E2BF2EF02DF5018081B5
S113225090E001969F938F93FF92EF928BE294E02C
S11322609F938F931F9383E08F930E949006F501B1
S11322708081EDD49F938F9385E294E09F938F9315
S11322800E943506F60185898F9384898F9383890B
S11322908F9382898F93E8E6F0E283818F93828122
S11322A08F9381818F9380818F93F60180891F9210
S11322B08F9380E094E09F938F931F9384E08F9398
S11322C00E949006CDBFDEBFEEE5F0E281818F93E0
S11322D080818F93E0E6F0E281818F9380818F93F8
S11322E086EE93E09F938F931F9385E08F930E94D4
S11322F090068EED93E09F938F931F9386E08F93C8
S11323000E949006C601C3D586ED93E09F938F93F8
S11323101F9387E08F930E9490068EE190E288D508
S1132320CDBFDEBF80915D21882349F081ED93E02C
S11323309F938F930E9435060F900F9054C08BEC9F
S113234093E09F938F930E9435060F900F904BC09C
S11323506701F3E0CF0ED11CF80187818F9386814A
S11323608F9385818F9384818F9383818F938281CF
S11323708F9381818F9380818F93DF92CF92FF928D
S1132380EF929F928F926F927F920E949006F80133
S1132390878D8F93868D8F93858D8F93848D8F9367
S11323A0838D8F93828D8F93818D8F93808D8F9367
S11323B0DF92CF92FF92EF92BF92AF926F9283E03F
S11323C0870D8F930E949006085F1F4F7394F4E06B
S11323D0EF0EF11CCDBFDEBF95E07912B9CF83E0DB
S11323E00E94050619C00EE210E2EE24E394F12CDB
S11323F06894772471F80F2EFBEA8F2EF3E09F2E5A
S1132400F02D0F2EF9E26F2EF02D0F2EFBE8AF2EDC
S1132410F3E0BF2EF02D9CCF6496CDBFDEBFDF91DD
S1132420CF911F910F91FF90EF90DF90CF90BF90CD
S1132430AF909F908F907F906F90089580913625F4
S1132440823061F081E2E5E1F5E2DF011D928A95D7
S1132450E9F704C08EE591E20E9462088EE591E2FC
S11324600E940608892BB1F70E947E05A2DE4BCD9F
S1132470089581E080933625E1CF0895CF93F9DF65
S113248010925D21CFB7F89441E050E06CE070E029
S11324908CEB90E20E9441258091BC2081508230D7
S11324A018F5CFBFCFB7F89441E050E06DE070E08D
S11324B08DE591E20E944125CFBFCFB7F89446E065
S11324C050E066E070E08EE190E20E944125CFBFCB
S11324D0CFB7F89446E050E060E070E088E190E225
S11324E00E944125CFBF04C081E08093BC20D9CF96
S11324F0CF910895CF93E8E7F0E0C0818FE7808320
S1132500C430E1F038F4C13059F108F453C0C2309A
S113251061F059C0C031D9F018F4C830E1F153C0AA
S1132520C03239F1C03471F14EC083E797E09F9314
S11325308F930E9435060F900F9064C085E697E054
S11325409F938F930E9435060F900F905BC087E591
S113255097E09F938F930E9435060F900F9052C07F
S11325608DE497E09F938F930E9435060F900F9010
S113257049C083E497E09F938F930E9435060F90A0
S11325800F9040C08CE397E09F938F930E94350691
S11325900F900F9037C082E397E09F938F930E9430
S11325A035068EE090E00E944C25809329200F9000
S11325B00F901DC089E297E09F938F930E94350688
S11325C00F900F901FC01F92CF9385E297E09F93C7
S11325D08F930E9435068EE090E00E944C258093F4
S11325E029200F900F900F900F90C3FF11C08A3FC6
S11325F078F461E0680F609329208EE090E00E94F7
S11326005C2506C08EE090E00E944C258093292032
S1132610CF9108958F929F92AF92BF92CF92DF9203
S1132620EF92FF920F931F93CF93DF93A8956BE2E2
S113263080E890E00E94D406E0E8F0E0828180FD2A
S1132640FDCF60E081E890E00E94D406E0E8F0E08D
S1132650828180FDFDCFC0E5D0E093E0988382E4E1
S11326608A838881886088839E8360E180E00E94F9
S1132670E90688818061888360E080E00E94EE063C
S1132680A0E6B0E08BE115968C93159787EB169630
S11326908C931697C0ECD1E082E08A87EDE1F0E0FC
S11326A0E4911296EC931297ECE1F0E0E491139626
S11326B0EC931A86E0E5F0E08181908189278F719F
S11326C0D9F784E00E94F30681E080936000809152
S11326D05500811104C081E08093680005C0E0E5E5
S11326E0F0E080818E7F8083E0E0F6E08FEF8683E8
S11326F00F2EF0E2CF2EF6E0DF2EF02D93EFD60171
S113270016969C931697828312969C93129794E044
S113271011969C93119716969C93C0E8D6E08D83EE
S1132720A0EAB6E015968C931597E0EEF6E0858363
S1132730898311968C938183E0E0F7E08583C0E27E
S1132740D7E09FE29D8390E19E8382838FE38A8317
S11327500F2EF0ECEF2EF7E0FF2EF02D6894BB2443
S1132760B3F8F701B582B18200EE17E083E0D80137
S113277015968C93159715968C9348E050E067E86E
S113278070E080E196E00E94322487E897E8DC015B
S11327908093340690933506A0933606B09337069B
S11327A048E050E067E870E080E996E00E94322457
S11327B048E050E067E870E080EB96E00E94322445
S11327C048E050E067E870E080EF96E00E94322431
S11327D048E050E060E870E080E197E00E94322435
S11327E048E050E060E870E080E397E00E94322423
S11327F080E9F601808B818B828B838BE0E4F6E0A9
S113280098EB908B918B828B838B848B858B80E868
S1132810868B878BE0E6F6E0808B818B828B838BC3
S1132820848B858B8C8B8D8B8E8B8F8B88E9D701DA
S113283052968C9352978FEA53968C93F801828B1D
S1132840838B03E010E026E041E064E088E190E25D
S11328506ED488E18093700085E08093710080934A
S11328607200B092730088E68093740088E78093C6
S113287075008093760061E086E990E00E94D406BA
S11328800FDA63E179E28EE591E20E94D208E1E297
S1132890F9E283E199E2808391838283938387E0E1
S11328A08093A2007894FFEF27EA81E6F15020405C
S11328B08040E1F700C00000809124209091252001
S11328C0A0912620B0912720892B8A2B8B2B69F588
S11328D0C0ECD1E082E08A87E5E1F0E02491E4E114
S11328E0F0E04491E3E1F0E03491E2E1F0E084913E
S11328F090E0A0E0B0E0B82FAA2799278827A32B5F
S1132900822B50E0542F4427052E000C660B770BC6
S1132910842B952BA62BB72B8093242090932520D2
S1132920A0932620B09327201A868091242090918A
S11329302520A0912620B09127208115E5E19E074E
S1132940A105E4E0BE0709F4BAC088F481152BE0C0
S11329509207A10521E0B20709F4EBC08115E5E176
S11329609E07A105E3E0BE0709F45DC0FCC0811524
S1132970F8E09F07A105F1E1BF0709F4F0C0811554
S113298025E19207A10522E2B20709F0ECC081E03B
S1132990809328208DE0E9E7F1E2A1ECB0E2019018
S11329A00D928A95E1F78DE0E6E8F1E2AEECB0E253
S11329B001900D928A95E1F78DE0E3E9F1E2ABED48
S11329C0B0E201900D928A95E1F78DE0E0EAF1E240
S11329D0A8EEB0E201900D928A95E1F78DE0EDEA60
S11329E0F1E2A5EFB0E201900D928A95E1F78DE056
S11329F0EAEBF1E2A2E0B1E201900D928A95E1F7EF
S1132A008DE0E7ECF1E2AFE0B1E201900D928A953E
S1132A10E1F78DE0E4EDF1E2ACE1B1E201900D9279
S1132A208A95E1F7B3C082E0809328208DE0E1EE3F
S1132A30F1E2A1ECB0E201900D928A95E1F78DE00C
S1132A40EEEEF1E2AEECB0E201900D928A95E1F780
S1132A508DE0EBEFF1E2ABEDB0E201900D928A95DF
S1132A60E1F78DE0E8E0F2E2A8EEB0E201900D9229
S1132A708A95E1F78DE0E5E1F2E2A5EFB0E201909D
S1132A800D928A95E1F78DE0E2E2F2E2A2E0B1E292
S1132A9001900D928A95E1F78DE0EFE2F2E2AFE06A
S1132AA0B1E201900D928A95E1F78DE0ECE3F2E258
S1132AB0ACE1B1E201900D928A95E1F767C083E041
S1132AC0809328208DE0E9E4F2E2A1ECB0E20190E9
S1132AD00D928A95E1F78DE0E6E5F2E2AEECB0E224
S1132AE001900D928A95E1F78DE0E3E6F2E2ABED19
S1132AF0B0E201900D928A95E1F78DE0E0E7F2E211
S1132B00A8EEB0E201900D928A95E1F78DE0EDE731
S1132B10F2E2AFE0B1E201900D928A95E1F78DE027
S1132B20EAE8F2E2ACE1B1E201900D928A95E1F7B4
S1132B302DC08AE0809328208DE0E7E9F2E2A1EC41
S1132B40B0E201900D928A95E1F78DE0E4EAF2E2B9
S1132B50AEECB0E201900D928A95E1F717C08DE0DA
S1132B608093282013C02FEF20932820BF93AF9386
S1132B709F938F938DE797E09F938F930E945B06BB
S1132B800F900F900F900F900F900F9077DC8EE2C4
S1132B9090E20E94B4041F921F9283EC8F9380E50D
S1132BA08F930F2E812CF8E49F2EF8EEAF2EBB24CA
S1132BB0B394F02D6894CC24C6F8E12CF12C00E0F9
S1132BC021E040E456E060E874E08CE690E2BED692
S1132BD082E690E215D38BEA97E09F938F930E944D
S1132BE0350683E199E286DC0F900F900F900F90E9
S1132BF00F900F90DF91CF911F910F91FF90EF9065
S1132C00DF90CF90BF90AF909F908F900895CF9317
S1132C10DF931F92CDB7DEB72091022030910320BD
S1132C20CE010196821B930B209116203091172020
S1132C308217930724F48093162090931720809191
S1132C401620909117200F90DF91CF9108959091C5
S1132C502820913021F0923009F448C08EC083308E
S1132C6011F120F4813089F048F016C0853049F123
S1132C7008F1863069F1873091F1C5C06FE177E0E2
S1132C8086E090E20E941724BEC067E177E086E008
S1132C9090E20E941724B7C06FE077E086E090E2EC
S1132CA00E941724B0C067E077E086E090E20E94BB
S1132CB01724A9C061E077E086E090E20E9417241F
S1132CC0A2C06BEF76E086E090E20E9417249BC0DE
S1132CD065EF76E086E090E20E94172494C06DEEE2
S1132CE076E086E090E20E9417248DC0833011F1D3
S1132CF020F4813089F048F016C0853049F108F19C
S1132D00863069F1873091F17EC066EE76E086E028
S1132D1090E20E94172477C06FED76E086E090E29F
S1132D200E94172470C068ED76E086E090E20E946D
S1132D30172469C061ED76E086E090E20E941724D2
S1132D4062C06AEC76E086E090E20E9417245BC0E1
S1132D5063EC76E086E090E20E94172454C06CEBAA
S1132D6076E086E090E20E9417244DC065EB76E0A1
S1132D7086E090E20E94172446C0833011F120F4CB
S1132D80813089F048F016C0853049F108F1863069
S1132D9069F1873091F137C063EB76E086E090E229
S1132DA00E94172430C061EB76E086E090E20E9436
S1132DB0172429C06FEA76E086E090E20E94172487
S1132DC022C06DEA76E086E090E20E9417241BC0E0
S1132DD06BEA76E086E090E20E94172414C069EA68
S1132DE076E086E090E20E9417240DC067EA76E060
S1132DF086E090E20E94172406C065EA76E086E049
S1132E0090E20E94172486E090E2089581E0809386
S1132E103725089510923725089508958EE591E297
S1132E200C94440708958EE591E20C94E608089505
S1132E30FC0182811F928F9381811F928F938081E5
S1132E401F928F9381ED97E09F938F930E94350695
S1132E508DB79EB708968DBF9EBF0895FC018281F1
S1132E601F928F9381811F928F93808190E0805372
S1132E70984F9F938F9381EC97E09F938F930E9439
S1132E8035068DB79EB708968DBF9EBF0895CF9324
S1132E90DF93EC010396E2DFCE01CADFDF91CF912D
S1132EA00895683168F44C3368F42C3368F43FB700
S1132EB0F894FC016083418322833FBF81E008953D
S1132EC080E0089580E0089580E00895FC01808109
S1132ED0883148F481818C3340F481E092819C33C1
S1132EE028F080E0089580E0089580E00895FC01D2
S1132EF092819C3358F021812F5F01C0232F9C5372
S1132F0031E0320F9C33D0F72183928391819C333B
S1132F1038F020819C532F5F9C33E0F7208391830A
S1132F209081983138F0258198512F5F9831E0F7DE
S1132F309083258308958530B9F038F4823081F088
S1132F40833091F0813051F40FC08A3069F020F45D
S1132F508750823018F408C08C3031F08EE1089527
S1132F60637021F08CE108958FE108958DE1089557
S1132F70EF92FF921F93CF93DF936536B8F43FEF40
S1132F80340F3C30A8F42223A9F0122FD42FC62FDB
S1132F907C01842FD0DF811778F08FB7F894F70184
S1132FA0C083D18312838FBF81E007C080E005C056
S1132FB080E003C080E001C080E0DF91CF911F91E9
S1132FC0FF90EF900895CF92EF920F93CF93DF93FA
S1132FD0EC010396CDDF882331F02C2D4E2D602F8C
S1132FE0CE015FDF02C080E090E08170DF91CF917D
S1132FF00F91EF90CF900895CF93DF93FC01608100
S113300086EF860F8A3558F481818D3050F4EF01B4
S113301092DF91E02A81821728F490E003C090E0C7
S113302001C090E0892FDF91CF910895CF93DF9372
S1133030EC010396E1DF882319F0CE0147DF02C0DB
S113304080E090E08170DF91CF910895FF920F931B
S11330501F93CF93DF938C01FC01F08005C0D81B34
S1133060F801D283CF5FC183F801D281C1816F2D72
S11330708C2F61DF8D1798F3CD3068F0F8018081D3
S11330808F5F01C0892FCC5091E0980FCD30D0F7DD
S1133090F801C1838083DF91CF911F910F91FF903D
S11330A00895CF93DF93EC0122DFCE010396CEDFA8
S11330B0DF91CF910895FC0122812F5F2283F1CF0C
S11330C008951F920F920FB60F92112408B60F9213
S11330D018BE09B60F9219BE0BB60F921BBE2F93E2
S11330E03F934F935F936F937F938F939F93AF938C
S11330F0BF93EF93FF938091382590913925DBDFBF
S1133100FF91EF91BF91AF919F918F917F916F91BB
S11331105F914F913F912F910F900BBE0F9009BE7D
S11331200F9008BE0F900FBE0F901F9018958F92AE
S11331309F92AF92BF92CF92EF92FF920F931F9301
S1133140CF93DF934C01D62FF42EC22F58018093D6
S11331503825909339256ADF811108C0C12CE12CF0
S113316000E021E041E06AE0C4012DDFE0E4F0E0AA
S11331708381817F81608D2B8383E0E0F4E0818112
S113318080FDFDCFE0E0F4E08281807F4F2D482B6D
S11331904283818180FDFDCF10920004E0E0F4E0E1
S11331A0818180FDFDCFA0920A04B0920B04E0E07F
S11331B0F4E0818180FDFDCF10920C0410920D0487
S11331C0E0E0F4E0818180FDFDCF109208041092CC
S11331D00904E0E0F4E0818180FDFDCFE0E0F4E06B
S11331E08081887FC82BC083DF91CF911F910F917D
S11331F0FF90EF90CF90BF90AF909F908F900895E5
S113320080933A2590933B2508958F929F92AF9295
S1133210BF92EF92FF920F931F93CF93DF934B01D3
S11332205C01790180913E2590913F25A091402534
S1133230B0914125892B8A2B8B2B81F0E9E4F5E2AF
S1133240AAE1B6E281E090E0EC01008111812281E3
S11332503381012B022B032BE9F402C0C0E0D0E040
S11332602BE02C9FC0012D9F900D1124FC01E45CE8
S1133270FA4DE082F18282829382A482B5828682B0
S11332809782A086B186FC01EA5BFA4D440F408325
S113329081E00EC001963B96EA17FB07A9F68CEF76
S11332A097E09F938F930E947C240F900F9080E06F
S11332B0DF91CF911F910F91FF90EF90BF90AF904E
S11332C09F908F900895CF93DF93CDB7DEB72D975E
S11332D0CDBFDEBF80901A20E0E0F9E08FEF9FEFD2
S11332E086A397A38FE097E280A791A785E08083C8
S11332F088E0818781E08783E8E4F0E08081817F52
S1133300808381EE97E09F938F930E947C240F909B
S11333100F90C12CD12C76011E821F82188619862B
S11333201A821B821C821D820F2E212CF9E03F2E53
S1133330F02D28E02B870F2EFBE09F2EF02D8A86A0
S11333409982D10190966D917C919197EB85199614
S1133350EC936F5F7F4FCB01A0E0B0E02E813F8103
S113336048855985280F391F4A1F5B1F2E833F83C9
S113337048875987BC01CD016C0D7D1D8E1D9F1D95
S113338024EF31E040E050E00E941D2329013A017E
S11333900F2EFCE3EF2EF5E2FF2EF02D00E010E0FF
S11333A0EC86FD86C801EC84FD84D70112968D90CD
S11333B09D90AD90BC90159781149104A104B10423
S11333C009F45AC016964D915D916D917C911997AF
S11333D0441655066606770608F443C0B981B09FC3
S11333E0F001B19FF00D1124EA5BFA4D208126957E
S11333F02130B1F0F701480D591D6A1D7B1D44169B
S1133400550666067706B8F7EC87FD87F70146830D
S11334105783608771872223A1F0DD24D39401C0F0
S1133420D12C3981389FF001399FF00D1124EA5BCA
S1133430FA4D2158822F880F20812170282B208358
S113344002C0DD24D394A895D701ED91FC91199580
S1133450A895D11011C0F701298111922A95E9F795
S11334600BC04419550966097709D70116964D937F
S11334705D936D937C9319970F5F1F4FEC85FD85CA
S11334803B96EC87FD870431110509F08BCFD10100
S11334909096CD90DC909197E8E01996EC93FFEF2D
S11334A0CF1ADF0AE12CF12C2A813B814C815D810A
S11334B02C0D3D1D4E1D5F1D2A833B834C835D8374
S11334C010911A203A85311709F460C04A805B8054
S11334D06C807D808E819F81A885B985480E591E98
S11334E06A1E7B1EA0913A25B0913B25AC87BD870F
S11334F0C301B20124EF31E040E050E00E941D23FB
S1133500EC85FD85208331836A817B818C819D815B
S113351024EF31E040E050E00E941D23AC85BD85DE
S113352012962D933C9313976E817F81888599859C
S113353024EF31E040E050E00E941D23EC85FD853E
S1133540248335836A817B818C819D8103D420E02F
S113355030E048EC52E48CD44B015C01C301B2016D
S1133560F9D39B01AC01C501B4018CD3AC85BD85F5
S113357016966D937D938D939C9319971E821F824B
S1133580188619861A821B821C821D82A895E8E47B
S1133590F0E08081816080837894889580818E7F3B
S11335A08083A8951A87CDCE1F920F920FB60F92E3
S11335B0112408B60F9218BE09B60F9219BE0BB6A5
S11335C00F921BBE2F933F934F935F936F937F9301
S11335D08F939F93AF93BF93EF93FF938EE591E205
S11335E00E94EC070E94AD0A12DBFF91EF91BF919C
S11335F0AF919F918F917F916F915F914F913F9187
S11336002F910F900BBE0F9009BE0F9008BE0F9024
S11336100FBE0F901F901895CF93DF93E09118265B
S1133620F09119268481882309F4B6C0A081B18160
S113363014968C91149782FF0CC0EF01C85BDF4F86
S113364094E09883E95BFF4F1082846014968C9316
S11336507AC183FF0CC0EF01C85BDF4F93E098830E
S1133660E95BFF4F1082886014968C936CC186FFCF
S113367046C0EF01C65BDF4F9881219628811496DE
S11336808C91149784FF0CC083E013968C93DF0114
S1133690A85BBF4F85E08C93E95BFF4F108253C159
S11336A0EF01C45BDF4F8881891750F4888191E072
S11336B0980F9883E80FF11D878117968C9343C167
S11336C0EF01C35BDF4F8881821738F4E75BFF4F5C
S11336D08081816016968C9336C183E013968C9317
S11336E0DF01A85BBF4F81E08C9311971C9205808A
S11336F0F681E02D309709F426C1199524C1882359
S11337000CF041C0EF01C35BDF4F8881803250F47D
S1133710888191E0980F988317969C91E80FF11D8A
S113372097A30BC083E013968C93DF01A85BBF4F74
S113373082E08C93E95BFF4F1082E0911826F091B0
S11337401926DF01A55BBF4F9C9112968C918917B6
S113375030F40190F081E02D82E08383F4C0A081F5
S1133760B18187E013968C93DF01A85BBF4F81E0A2
S11337708C9311971C920580F681E02D309709F403
S1133780E2C01995E0C0DF01A85BBF4F86E08C93CF
S1133790E95BFF4F1082D7C0A081B1811A968C914A
S11337A01A9782FF0DC0DF01A25BBF4F1C921196D6
S11337B01C92179784E08C93E95BFF4F1082C3C07F
S11337C083FF0DC0DF01A25BBF4F1C9211961C92B8
S11337D0179783E08C93E95BFF4F1082B4C0282FC6
S11337E02074982F91749134B9F4EF01C95BDF4FC1
S11337F081E088832196188218968C9118978B7F84
S113380018968C93DF01A15BBF4F1C920190F0814D
S1133810E02D83E0818797C02223E9F018968C91EC
S113382018978B7F18968C93A081B1811A968C91EE
S11338301A9780641A968C93DF01A85BBF4F81E0CE
S11338408C9311971C920580F681E02D309709F432
S11338507AC0199578C088230CF06DC01A968C91A3
S11338601A9781FF3EC0EF01C15BDF4F8881882337
S1133870B9F01A968C911A9784FF12C082E01996B7
S11338808C93DF01A85BBF4F81E08C9311971C924E
S11338900580F681E02D309709F455C0199553C081
S11338A0EF01C15BDF4F8881803280F4888191E031
S11338B0980F9883EF01C80FD11D8F811C968C93AC
S11338C00190F081E02D83E081873DC082E019966C
S11338D08C93DF01A85BBF4F8C93E95BFF4F108291
S11338E032C018968C911897846018968C93DF01D7
S11338F0A25BBF4F8C91803280F48C9191E0980F41
S11339009C93A081B1811C969C911C97E80FF11D9A
S113391097A383E019968C9316C0A081B18186E0A9
S113392019968C93DF01A85BBF4F82E08C93E95B0F
S1133930FF4F108208C0DF01A85BBF4F85E08C9366
S1133940E95BFF4F1082DF91CF9108956F927F92D0
S11339508F929F92AF92BF92CF92EF92FF920F936A
S1133960CF93DF93CDB7DEB73C01FA0188E3808BB8
S1133970818B83E085838183609218267092192657
S1133980D30112964D935C93139714962C9314972A
S11339901596ED92FC9216976D937C9311972223C2
S11339A029F1FB011082ED90FC9088899989AA89FC
S11339B0BB899C01AD01220F331F441F551FC50154
S11339C0B4013BD62550D70115962C93D301ED9124
S11339D0FC9111978C2D88638183ED91FC91119753
S11339E01282ED91FC9181E0848313C0F301E25BC8
S11339F0FF4F1082319610823897108231961082D0
S1133A008C2D8863FB018087D301ED91FC91000F1D
S1133A100387DF91CF910F91FF90EF90CF90BF90EC
S1133A20AF909F908F907F906F9008951F920F9208
S1133A300FB60F92112408B60F9218BE09B60F9252
S1133A4019BE0BB60F921BBE2F933F934F935F93F8
S1133A506F937F938F939F93AF93BF93EF93FF9352
S1133A60DBDDFF91EF91BF91AF919F918F917F919A
S1133A706F915F914F913F912F910F900BBE0F90DB
S1133A8009BE0F9008BE0F900FBE0F901F9018959F
S1133A901F920F920FB60F92112408B60F9218BE00
S1133AA009B60F9219BE0BB60F921BBE2F933F930C
S1133AB04F935F936F937F938F939F93AF93BF9332
S1133AC0EF93FF93A9DDFF91EF91BF91AF919F9188
S1133AD08F917F916F915F914F913F912F910F90B3
S1133AE00BBE0F9009BE0F9008BE0F900FBE0F9033
S1133AF01F9018951F920F920FB60F92112408B6BB
S1133B000F9218BE09B60F9219BE0BB60F921BBEC8
S1133B102F933F934F935F936F937F938F939F93D1
S1133B20AF93BF93EF93FF9377DDFF91EF91BF9135
S1133B30AF919F918F917F916F915F914F913F9141
S1133B402F910F900BBE0F9009BE0F9008BE0F90DF
S1133B500FBE0F901F9018951F920F920FB60F92E1
S1133B60112408B60F9218BE09B60F9219BE0BB6EF
S1133B700F921BBE2F933F934F935F936F937F934B
S1133B808F939F93AF93BF93EF93FF9345DDFF9183
S1133B90EF91BF91AF919F918F917F916F915F91C1
S1133BA04F913F912F910F900BBE0F9009BE0F9034
S1133BB008BE0F900FBE0F901F9018951F920F9282
S1133BC00FB60F92112408B60F9218BE09B60F92C1
S1133BD019BE0BB60F921BBE2F933F934F935F9367
S1133BE06F937F938F939F93AF93BF93EF93FF93C1
S1133BF013DDFF91EF91BF91AF919F918F917F91D1
S1133C006F915F914F913F912F910F900BBE0F9049
S1133C1009BE0F9008BE0F900FBE0F901F9018950D
S1133C201F920F920FB60F92112408B60F9218BE6E
S1133C3009B60F9219BE0BB60F921BBE2F933F937A
S1133C404F935F936F937F938F939F93AF93BF93A0
S1133C50EF93FF93E1DCFF91EF91BF91AF919F91BF
S1133C608F917F916F915F914F913F912F910F9021
S1133C700BBE0F9009BE0F9008BE0F900FBE0F90A1
S1133C801F9018950CD0BAC0B2D040F0A9D030F033
S1133C9021F45F3F19F09BC05111E4C09EC0BFD016
S1133CA098F39923C9F35523B1F3951B550BBB27FF
S1133CB0AA2762177307840738F09F5F5F4F220FAC
S1133CC0331F441FAA1FA9F333D00E2E3AF0E0E8A5
S1133CD030D091505040E695001CCAF729D0FE2FF1
S1133CE027D0660F771F881FBB1F26173707480783
S1133CF0AB07B0E809F0BB0B802DBF01FF27935839
S1133D005F4F2AF09E3F510568F061C0ABC05F3F32
S1133D10ECF3983EDCF3869577956795B795F79520
S1133D209F5FC9F7880F911D9695879597F9089518
S1133D30E1E0660F771F881FBB1F621773078407B4
S1133D40BA0720F0621B730B840BBA0BEE1F88F7C3
S1133D50E0950895E89409C097FB3EF4909580950A
S1133D60709561957F4F8F4F9F4F9923A9F0F92F3D
S1133D7096E9BB279395F695879577956795B795BB
S1133D80F111F8CFFAF4BB0F11F460FF1BC06F5FA1
S1133D907F4F8F4F9F4F16C0882311F096E911C0B3
S1133DA0772321F09EE8872F762F05C0662371F0D4
S1133DB096E8862F70E060E02AF09A95660F771FE8
S1133DC0881FDAF7880F9695879597F9089597F9DC
S1133DD09F6780E870E060E008959FEF80EC0895AD
S1133DE000240A94161617061806090608950024D6
S1133DF00A9412161306140605060895092E039450
S1133E00000C11F4882352F0BB0F40F4BF2B11F4C3
S1133E1060FF04C06F5F7F4F8F4F9F4F089557FD22
S1133E209058440F551F59F05F3F71F04795880F24
S1133E3097FB991F61F09F3F79F0879508951216BB
S1133E4013061406551FF2CF4695F1DF08C0161667
S1133E5017061806991FF1CF869571056105089418
S1133E600895E894BB2766277727CB0197F908952F
S1133E700BD0C4CFB5DF28F0BADF18F0952309F0D2
S1133E80A6CFABCF1124EECFCADFA0F3959FD1F319
S1133E90950F50E0551F629FF001729FBB27F00DF4
S1133EA0B11D639FAA27F00DB11DAA1F649F662749
S1133EB0B00DA11D661F829F2227B00DA11D621F98
S1133EC0739FB00DA11D621F839FA00D611D221F52
S1133ED0749F3327A00D611D231F849F600D211D36
S1133EE0822F762F6A2F11249F5750408AF0E1F0D9
S1133EF088234AF0EE0FFF1FBB1F661F771F881F22
S1133F0091505040A9F79E3F510570F060CFAACF61
S1133F105F3FECF3983EDCF3869577956795B7950C
S1133F20F795E7959F5FC1F7FE2B880F911D969536
S1133F30879597F908952F923F924F925F926F92CF
S1133F407F928F929F92AF92BF92CF92DF92EF9225
S1133F50FF920F931F93CF93DF93CDB7DEB7639791
S1133F60CDBFDEBF6C014B012A01FC011682178212
S1133F70838181FF29C3AE014F5F5F4F3A01F60190
S1133F809381F40193FD859193FF81914F018823DF
S1133F9009F416C3853239F493FD859193FF819119
S1133FA04F01853231F4B60190E06ED452012501FF
S1133FB0E6CF10E0F12C20E02032A0F48B3269F03F
S1133FC030F4803259F0833269F420612CC08D3290
S1133FD039F0803339F4216026C02260246023C084
S1133FE0286021C027FD27C030ED380F3A3078F41F
S1133FF026FF06C0FAE01F9F300D1124132F13C0B3
S11340004AE0F49E300D1124F32E20620CC08E324F
S113401021F426FDD5C2206406C08C3611F4206834
S113402002C0883641F4F40193FD859193FF819198
S11340304F018111C1CF9BEB980F933018F420618D
S1134040805E06C09BE9980F933008F064C12F7E10
S113405026FF16E02F73322E853619F42064322E93
S113406008C0863621F4F22FF0683F2E02C01111E9
S1134070115037FE07C01C3350F4EE24E394E10ED4
S113408027E00BC0183038F027E017E005C027E020
S11340904CE3E42E02C0212FE12C520144E0A40E93
S11340A0B11CF20160817181828193810E2DA30183
S11340B0E6D22C01098100FF02C003FF07C031FCD6
S11340C008C032FE09C030E2232E07C02DE2222EA2
S11340D004C09BE2292E01C0212C802F8C7019F082
S11340E0211051C28DC237FE0FC0E40C04FF04C07E
S11340F08A81813309F4EA941E1474F5F8E0FE15FC
S113410078F588E0E82E2CC036FC2AC0812F90E098
S1134110841595059CF02CEF42162FEF520674F08F
S1134120432D4068342E0AC0E2E0F0E0EC0FFD1F9E
S1134130E10FF11D8081803319F411501111F4CF76
S113414037FE0EC0EE24E394E10E812F90E0481672
S113415059062CF4141904C0EE24E39401C010E0B1
S113416037FE06C01414150434F4C201019605C0C8
S113417085E090E002C081E090E0211001961123D7
S113418031F0212F30E02F5F3F4F820F931F2F2DEF
S113419030E08217930714F4F81A01C0F12C832D30
S11341A0897041F4FF2031F0B60180E290E06CD3D5
S11341B0FA94F8CF222021F0B601822D90E064D346
S11341C033FC08C0FF2031F0B60180E390E05CD3FB
S11341D0FA94F8CF37FE58C0942D852D57FE02C0AF
S11341E090E080E0292E382E20E030E0A2014E1924
S11341F051094C875D87A201421953094E875F8795
S1134200612F70E044275527461B570B488B598B69
S11342105FEF2516350641F4B6018EE290E02A8B55
S11342203B8B32D33B892A89421453046CF04C856E
S11342305D854215530544F4EE85FF85E20FF31FB7
S1134240E60DF71D818101C080E351E0251A310894
S11342502F5F3F4F488959892416350644F0B6012B
S113426090E02A8B3B8B10D32A893B89D1CF24142D
S1134270350439F49A81963318F4953311F404FF14
S113428081E3B60190E045C08A81813309F00F7E55
S1134290B60190E0F9D2111105C034FC16C085E6D0
S11342A090E015C0B6018EE290E0EED282E0EE24FA
S11342B0E394E80EF301E80FF11D8081B60190E06C
S11342C0E3D211508E2D99F7E8CF85E490E0B60142
S11342D0DBD257FC05C04114510439F404FF05C076
S11342E05194419451088DE201C08BE2B60190E0F3
S11342F0CBD280E39AE0491651042CF08F5F5AE048
S1134300451A5108F7CFB60190E0BED2B601C201FA
S1134310C096BAD24CC1833631F0833779F08335F5
S113432009F054C020C05201E2E0AE0EB11CF2010B
S11343308081898301E010E0230113C05201F2E07F
S1134340AF0EB11CF2014080518026FF03C0612FE3
S113435070E002C06FEF7FEFC2012A8B8AD28C011A
S11343602A892F7714C05201F2E0AF0EB11CF2017A
S11343704080518026FF03C0612F70E002C06FEFC0
S11343807FEFC2012A8B5AD28C012A892068322EEF
S113439023FD18C08F2D90E00817190798F4B60173
S11343A080E290E071D2FA94F5CFF20137FC859166
S11343B037FE81912F01B60190E066D2F110FA9494
S11343C0015011090115110581F7F1C0843611F06E
S11343D0893651F5520127FF09C0F4E0AF0EB11C34
S11343E0F20160817181828193810AC0F2E0AF0E93
S11343F0B11CF20160817181072E000C880B990BAE
S11344002F76322E97FF09C090958095709561950F
S11344107F4F8F4F9F4F2068322E2AE030E0A30158
S1134420D2D2E82EE6183EC0022F853721F40F7E43
S11344302AE030E01DC0097F8F3691F018F48835EA
S113444059F0BEC0803719F0883711F0B9C0006147
S113445004FF09C0046007C024FF08C0066006C04A
S113446028E030E005C020E130E002C020E132E085
S1134470520107FF09C0F4E0AF0EB11CF2016081E4
S113448071818281938108C0F2E0AF0EB11CF20108
S11344906081718180E090E0A30195D2E82EE61856
S11344A00F77302E36FE0BC0332D3E7FE11650F4CD
S11344B034FE0AC032FC08C0332D3E7E05C00E2DEA
S11344C0332D03C00E2D01C0012F34FF0CC0FE019B
S11344D0EE0DF11D8081803311F4397E08C032FF66
S11344E005C00E5F04C0832F867809F00F5F33FD8B
S11344F012C030FF06C01E2D0F1518F41F0D101B1F
S11345000F2D0F1560F4B60180E290E03B8BBCD117
S11345100F5F3B89F6CF0F1510F4F01A01C0F12C90
S113452034FF11C0B60180E390E03B8BADD13B89F1
S113453032FF16C031FD03C088E790E002C088E571
S113454090E0B6010CC0832F867851F031FF02C091
S11345508BE201C080E237FD8DE2B60190E094D198
S1134560E11630F4B60180E390E08ED11150F8CF1B
S1134570EA94F301EE0DF11D8081B60190E084D13F
S1134580E110F6CF14C0F4E0FF1548F584E0F81A02
S113459033FE1DC0211024C003FF27C008E118E02A
S11345A0F32DF0713F2EF8018491811121C0FF2079
S11345B009F4FDCCB60180E290E066D1FA94F7CF1D
S11345C0F6018681978123C08FEF9FEF20C0B6014B
S11345D080E290E059D1FA94F110F9CFDBCFF12CBD
S11345E0B601822D90E050D1D7CF0CE118E0D8CF9E
S11345F031108052B60190E047D10F5F1F4FD3CFE7
S113460023E02F1510F483E0C2CFF12CC5CF6396BD
S1134610CDBFDEBFDF91CF911F910F91FF90EF903F
S1134620DF90CF90BF90AF909F908F907F906F90CE
S11346305F904F903F902F900895A1E21A2EAA1BED
S1134640BB1BFD010DC0AA1FBB1FEE1FFF1FA2173E
S1134650B307E407F50720F0A21BB30BE40BF50B3B
S1134660661F771F881F991F1A9469F760957095C4
S1134670809590959B01AC01BD01CF010895283030
S113468008F027E03327DA01990F311D87FD916087
S113469000966105710539F432602E5F3D9330E375
S11346A02A95E1F708959F3F30F080387105610540
S11346B009F03C5F3C5F3D93913008F08068911DA8
S11346C0DF93CF931F930F93FF92EF92192F987F4D
S11346D09695E92F96959695E90FFF27E658F74F9B
S11346E099273327EE24FF24A701E70105900894B6
S11346F0079428F4360FE71EF81E491F511D660F54
S1134700771F881F991F0694A1F70590079428F432
S1134710E70EF81E491F561FC11D770F881F991FEA
S1134720661F0694A1F70590079428F4F80E491F14
S1134730561FC71FD11D880F991F661F771F069428
S1134740A1F70590079420F4490F561FC71FD81FDF
S1134750990F661F771F881F0694A9F784911095F7
S1134760177041F0D695C79557954795F794E794F8
S11347701A95C1F7E0E2F8E0689415901591359127
S11347806591959105907FE27395E118F10A430BC9
S1134790560BC90BD009C0F7E10CF11E431F561F7D
S11347A0C91FD01D7EF4703311F48A95E6CFE894C6
S11347B0015030F0080F0AF40027021708F4202FE4
S11347C02395022F7A3328F079E37D932A95E9F72C
S11347D010C07D932A9589F6069497956795379529
S11347E017951794E118F10A430B560BC90BD0091E
S11347F098F023957E9173957A3308F070E37C9357
S11348002013B8F77E9170617D9330F0839571E346
S11348107D9370E32A95E1F71124EF90FF900F91B7
S11348201F91CF91DF91992787FD90950895FB0102
S1134830DC0105900D920020E1F70895FC0105903C
S1134840615070400110D8F7809590958E0F9F1F8E
S11348500895FB01DC0102C001900D9241505040CB
S1134860D8F70895DC0101C06D9341505040E0F742
S11348700895FC016150704001900110D8F78095B3
S113488090958E0F9F1F08950F931F93CF93DF93DF
S1134890FB01238121FD03C08FEF9FEF28C022FF7E
S11348A016C046815781248135814217530744F449
S11348B0A081B1819D012F5F3F4F208331838C9371
S11348C0268137812F5F3F4F2683378310C0EB014A
S11348D0092F182F0084F185E02D1995892BE1F615
S11348E08E819F8101968E839F83812F902FDF91EC
S11348F0CF911F910F9108950F931F93CF93DF933F
S1134900CDB7DEB7AE01485F5F4FDA016D917D919F
S1134910AD0101E219E2F80182819381DC01139671
S11349202C911397286013962C9305DBD8011296CB
S1134930ED91FC9113972381277F2383DF91CF91FE
S11349401F910F910895CF93DF93EC018B818860C1
S11349508B83CE01F0DA2B81277F2B83DF91CF91DC
S113496008950F931F93CF93DF93CDB7DEB72E97A0
S1134970CDBFDEBF8C01CA014EE04C8309831A838C
S113498077FF02C060E070E8FB013197ED83FE839E
S1134990A901BC01CE010196CEDA4D815E8157FD9D
S11349A00AC02F813885421753070CF49A01F80185
S11349B0E20FF31F10822E96CDBFDEBFDF91CF91A1
S11349C01F910F910895FA01AA27283051F120313F
S11349D081F1E8946F936E7F6E5F7F4F8F4F9F4F8F
S11349E0AF4FB1E03ED0B4E03CD0670F781F891FD1
S11349F09A1FA11D680F791F8A1F911DA11D6A0F9F
S1134A00711D811D911DA11D20D009F468943F9151
S1134A102AE0269F11243019305D3193DEF6CF0150
S1134A200895462F4770405D4193B3E00FD0C9F716
S1134A30F6CF462F4F70405D4A3318F0495D31FD83
S1134A404052419302D0A9F7EACFB4E0A6959795D6
S1134A50879577956795BA95C9F7009761057105AC
S1134A6008959B01AC010A2E0694579547953795F6
S1134A702795BA95C9F7620F731F841F951FA01D50
S1134A800895E0ECF1E0A785A7FDFDCFA485A8601B
S1134A90A4876050704FDDCE03D08081992708959C
S1134AA0E0ECF1E0378537FDFDCF3485386034879D
S1134AB0FC01E050F04F0895262FF2DF008002162B
S1134AC011F004D0019701970895262FE0ECF1E04E
S1134AD0378537FDFDCF3485377F3487378531FF00
S1134AE009C036E3328738ED34BF31E03387378588
S1134AF037FDFDCF33E33287808391831282248391
S1134B0025E3228728ED31E024BF338701960895F9
S1074B10F894FFCF43
S1134B140000272920003F000000000000000000DE
S1134B240000000000000020010000110B0401003B
S1134B34000000000000000000000000000000006D
S1134B44000000000000000000000000000000005D
S1134B54000000000000000000000000000000004D
S1134B64000000000000000000000000000000003D
S1134B74000000000000000000000000000000002D
S1134B84000000000000000000000000000000001D
S1134B94000000000000000000000000000000000D
S1134BA400000000000000000000000000000000FD
S1134BB400000000000000000000000000000000ED
S1134BC400000000000000000000000000000CFFD2
S1134BD40F4E414D452031000000000001004E41BC
S1134BE44D452032000000000001004E414D452097
S1134BF433000000000001004E414D452034000004
S1134C0400000001004E414D452035000000000025
S1134C1401004E414D452036000000000001004EC5
S1134C24414D452037000000000001004E414D4530
S1134C342038000000000001004E414D4520390099
S1134C440000000001004E414D45203130000000B9
S1134C540001004E414D45203131000000000100A7
S1134C644E414D4520313200000000010000008314
S1134C74400000010440000001820800000100001B
S1134C840000000000000000004D424320310000F9
S1134C940000000301004265696E204D32000000EB
S1134CA40201004D424320447261000000030100EC
S1134CB44D42432044722B0000000304004D424340
S1134CC4203200000000000301004D424320500044
S1134CD4000000000103004D4243203400000000A2
S1134CE4000101004D4243204D6100000000010118
S1134CF4004265696E203100000000020100426533
S1134D04696E2032000000000202004265696E20D0
S1134D1433000000000203004265696E203800007D
S1134D2400000208004265696E203700000000029A
S1134D3407004265696E203400000000020400424A
S1134D4465696E2035000000000205004265696E45
S1134D542036000000000206004E414D452031007B
S1134D640000000317004E414D45203200000000AE
S1134D740316004E414D4520330000000003180083
S1134D844E414D452034000000000303004E414DC4
S1134D944520370000000002DF014E414D45203814
S1134DA400000000020B004E414D4520310000007C
S1134DB4000201004E414D45203200000000020172
S1054DC40000E9
S9030000FC
