S00E00005256425A76322E737265632A
S11300009BC60000BFC60000BDC60000BBC6000002
S1130010B9C60000B7C60000B5C60000B3C60000EC
S1130020B1C60000AFC600000C943526ABC6000074
S11300300C94692C0C94372CA5C60000A3C60000B0
S1130040A1C600009FC600009DC600009BC600001C
S113005099C6000097C6000095C6000093C600002C
S113006091C600008FC600008DC600008BC600003C
S113007089C6000087C6000085C6000083C600004C
S113008081C600007FC600007DC600007BC600005C
S113009079C6000077C6000075C6000073C600006C
S11300A071C600006FC600006DC600006BC600007C
S11300B069C600000C94312D0C94FF2C63C600001B
S11300C061C600005FC600005DC600005BC600009C
S11300D059C6000057C6000055C6000053C60000AC
S11300E051C600004FC600004DC600004BC60000BC
S11300F049C6000047C6000045C6000043C60000CC
S113010041C600003FC600003DC600003BC60000DB
S113011039C6000037C6000035C6000033C60000EB
S113012031C600002FC600002DC600000C94CD2C53
S11301300C949B2C27C6000025C600000C94C529EE
S113014021C600001FC600001DC600001BC600001B
S113015019C6000017C6000015C6000013C600002B
S113016011C600000FC600000DC600000BC600003B
S113017009C6000007C6000005C6000003C600004B
S113018001C60000FFC50000FDC50000FBC500005E
S1130190F9C50000F7C50000F5C50000F3C500006F
S11301A0F1C50000EFC50000EDC50000EBC500007F
S11301B0E9C50000E7C50000E5C50000E3C500008F
S11301C0E1C50000DFC50000DDC50000DBC500009F
S11301D0D9C50000D7C50000D5C50000D3C50000AF
S11301E0D1C50000CFC50000CDC50000CBC50000BF
S11301F0C9C500000C94C411C5C500003C62723E20
S1130200001B5B25753B2575481B5B304B003C622E
S1130210723E000D0A00485454502F312E302032C3
S11302203030204F4B0D0A436F6E74656E742D543D
S11302307970653A20746578742F68746D6C0D0A52
S11302400D0A3C666F6E743E001B5B25753B25757D
S1130250481B5B304B001B5B306D1B5B324A1B5BE6
S1130260316D1B5B336D1B5B3F32356C003C666F3D
S11302706E7420636F6C6F723D226D6167656E747E
S113028061223E003C666F6E7420636F6C6F723D3A
S113029022726564223E003C666F6E7420636F6C4C
S11302A06F723D22707572706C65223E003C666F01
S11302B06E7420636F6C6F723D22677265656E2287
S11302C03E003C2F666F6E743E001B5B751B5B33F8
S11302D0356D001B5B731B5B33316D001B5B731B44
S11302E05B33366D001B5B731B5B33326D001C0389
S11302F04C005500460041002000430044004300E8
S11303002000440065006D006F00000018034400E5
S1130310650061006E002000430061006D0065000F
S11303207200610000000403090409023E00020196
S113033000C032090400000102020100052400107B
S113034001042402060524060001070582030800AF
S1130350FF09040100020A0000000705040240002E
S11303600507058302400005120110010200000880
S1130370EB03442001000102DC01416C61726D2039
S1130380262054696D6520536176656420746F205E
S1130390454550524F4D2E00446576253275422D09
S11303A0253275423A2535642C2535642C2535755E
S11303B02C253564206D4100446576253275412D28
S11303C0253275413A2535642C2535642C2535753F
S11303D02C253564206D4100286F66662900286F3E
S11303E06E2900416C61726D3A200054696D653A62
S11303F02020005053553A20253564206D562C207A
S11304004C6F61643A20253564206D4100426F6170
S113041072643A2025752C204350553A20252E31FC
S11304206625252C2054656D703A20252E316620D2
S113043043002028257329004465766963653A20C2
S113044025732C20253275202F20253275004D650B
S11304506E753A20257300583A20666F72636520E2
S11304607265626F6F7420616C6C20646576696379
S11304706573005A3A20736574206368616E6E6513
S11304806C20616C6C206465766963657300463A20
S113049020666F726365207265626F6F7400473AFD
S11304A020736574206368616E6E656C00592C4E10
S11304B02C4C3A206661766F726974652C206F70DB
S11304C074696F6E2C207363686564756C65005580
S11304D02C492C4A2C4B3A207265642C2067726597
S11304E0656E2C2079656C6C6F772C20626C756559
S11304F000563A20766F6C756D65004D3A206D6537
S11305006E7500483A20686F6D6500433A20636158
S11305106E63656C00423A206261636B004F3A205F
S11305206F6B00503A20706F776572206275747437
S11305306F6E00272C27202F20272E273A20636850
S1130540616E6E656C20707265762F6E65787400CE
S1130550302D393A206469676974730057415344F4
S11305603A206172726F77206B657973004461740D
S1130570613A202725732700616C61726D206F6ECC
S11305802C20616C61726D206F6666007365742047
S11305906265696E2C207365742068756D61782CB2
S11305A020736574206D6263007265736574202F17
S11305B02072657374617274202F207265626F6F8C
S11305C07400697020612E622E632E6400616C6178
S11305D0726D20683A6D3A730074696D6520683AEB
S11305E06D3A73006461746520793A6D3A6400571A
S11305F044543A2025752C2052414D3A2025642C30
S11306002049443A2030782530386C7800427569A6
S11306106C643A20536174204F6374203037203265
S1130620313A35363A30392032303137005072653C
S11306307373205320746F206D6F6469667920731F
S1130640657474696E6773005072657373205370B8
S113065061636520746F2073656E642072656D6FCD
S1130660746520636F6D6D616E6400526F6F6D739E
S1130670204572726F7221004572726F723A207453
S113068065787420696E707574206F766572666C17
S11306906F7721004661696C6564207265616469E5
S11306A06E67207465787420696E7075743A206979
S11306B06E76616C696420696E70757420666F7201
S11306C06D617421004661696C65642075706461B4
S11306D074696E6720616C61726D3A20696E76612F
S11306E06C69642074696D65210053756363657377
S11306F066756C6C79207570646174656420616CD6
S113070061726D20746F3A200061252A5B5E302D82
S1130710395D256868753A256868753A256868758D
S1130720004661696C6564207570646174696E6704
S11307302074696D653A20696E76616C6964207411
S1130740696D65210053756363657366756C6C79B7
S113075020757064617465642074696D6520746FBC
S11307603A200074252A5B5E302D395D2568687552
S11307703A256868753A25686875004661696C654C
S113078064207570646174696E6720646174653A8D
S113079020696E76616C696420646174652100531C
S11307A0756363657366756C6C79207570646174C8
S11307B06564206461746520746F3A200064252A9E
S11307C05B5E302D395D256868753A256868753A31
S11307D02568687500416C61726D2064697361629B
S11307E06C6564006F666600416C61726D20656EB5
S11307F061626C6564006F6E00616C61726D0072A1
S113080065626F6F740072657374617274007265EF
S11308107365740044657669636520747970652036
S113082073657420746F204D4243006D626300440D
S113083065766963652074797065207365742074C6
S11308406F2048756D61780068756D617800446546
S11308507669636520747970652073657420746F9C
S1130860204265696E006265696E009F0884087F96
S1130870087B089F089A0891088A086D62630062E1
S113088065696E0068756D61780072656D6F746579
S11308900073657474696E6773006D61696E006ED0
S11308A06F6F6E6500544D5031313220696E69743A
S11308B020737563636573732100544D5031313275
S11308C0206661696C656420322100544D503131D9
S11308D032206661696C656421004265696E203668
S11308E0004265696E2035004265696E203400421D
S11308F065696E2037004265696E2038004265697B
S11309006E2033004265696E2032004265696E20B4
S113091031004D4243204D6178004D424320340064
S11309204D42432050004D42432032004265696EDF
S1130930204D31004D424320447261004265696E8E
S1130940204D32004D42432031005265626F6F7476
S1130950696E672E2E2E0025752100556E6B6E6F05
S1130960776E21005761746368646F672100537068
S1130970696B652100536F6674776172652100505D
S11309806F7765722D4F6E21004465627567205341
S1130990797374656D2100556E646572766F6C743D
S11309A0616765210045787465726E616C2100573A
S11309B061726E696E673A20756E6B6E6F776E202A
S11309C06D6963726F636F6E74726F6C6C657220A5
S11309D049443A2030782530386C782000486172D8
S11309E0647761726520496E697469616C697A65BE
S11309F0642E00204572726F723A20756E6B6E6FB2
S1130A00776E20646576696365207479706521006A
S1130A104572726F723A20756E6B6E6F776E206BD3
S1130A20657921003900380037003600350034007C
S1130A3033003200310030007363686564756C659F
S1130A40006F7074696F6E006661766F72697465A9
S1130A50007375627300617564696F00626C75651B
S1130A600079656C6C6F7700677265656E007265FE
S1130A706400736574206368616E6E656C2025750F
S1130A8000666F726365207265626F6F7400766FC3
S1130A906C756D6520757000706F776572006D659B
S1130AA06E7500686F6D650063616E63656C0062EE
S1130AB061636B00636F6E6669726D006172726F61
S1130AC077207269676874006172726F7720646F4F
S1130AD0776E006172726F77206C65667400617264
S1130AE0726F77207570006368616E6E656C207537
S1130AF070006368616E6E656C20646F776E00527F
S1130B00656D6F746520746F2025732C20307825F3
S1130B103033782C2000506F776572696E67204FF0
S1130B2066662064657669636520257520412B42DD
S1130B3000506F776572696E67204F6E206465762A
S1130B4069636520257520412B420020646F6E6522
S1130B502E0D0A002C206465766963657320307855
S1130B60253033782C206B6579636F646520307889
S1130B7025303878002575004572726F723A2072FC
S1130B8065626F6F742069732061626F727465644B
S1130B902120416C726561647920627573792072D9
S1130BA065626F6F74696E67206F7220696E746519
S1130BB0726E616C206572726F722E0020457272C3
S1130BC06F723A20656D70747920636F6D6D616E1C
S1130BD0642100253032753A253032753A25303299
S1130BE0752000253034752D253032752D25303291
S1130BF07520000D0A1B5B304B4170706C6963619A
S1130C0074696F6E205374617274656421000D0AF7
S1130C101B5B304B4576656E74206F766572666C2F
S1130C206F77206572726F7221006E616E00696E5B
S1130C30660000407A10F35A00A0724E18090010A2
S1130C40A5D4E80000E87648170000E40B5402003D
S1130C5000CA9A3B000000E1F50500008096980068
S1130C60000040420F000000A08601000000102791
S1130C7000000000E8030000000064000000000021
S1130C800A00000000000100000000002C76D88853
S1130C90DC674F0823DFC1DFAE59E1B1B796E5E366
S1130CA0E453C63AE651997696E8E6C28426EB897F
S1130CB08C9B62ED407C6FFCEFBC9C9F40F2BAA51C
S1130CC06FA5F490055A2AF75C936B6CF9676DC1B4
S1130CD01BFCE0E40D47FEF520E6B500D0ED902EB8
S1130CE00300943577050080841E080000204E0A16
S1130CF0000000C80C333333330F986E1283114154
S1130D00EF8D2114893BE65516CFFEE6DB18D1841E
S1130D104B381BF77C1D901DA4BBE4242032847245
S1130D205E228100C9F124ECA1E53D276364696E6C
S1130D306F70737578585B0011241FBECFEFCDBF61
S1130D40DFE3DEBF00E00CBF18BE19BE1ABE1BBE37
S1130D5011E2A0E0B0E2E8E1F1E700E00BBF02C07D
S1130D6007900D92A230B107D9F71BBE27E2A2E08B
S1130D70B1E201C01D92AF37B207E1F70E9433120E
S1130D800C948A383DC9CF92DF92EF92FF921F9361
S1130D90CF93DF93E0E0F2E081A381A781AB81AF41
S1130DA090E48927E0E4F2E081A381A781AB81AFDD
S1130DB020E230E040E050E0BA01C0E0D2E01FE0C1
S1130DC088818C63888380818C63808386818F7023
S1130DD08F30E1F71E831683CCA0DDA0ECA4FDA424
S1130DE0ACA9BDA98CAD9DADCE0CDF1CCA0EDB1E1B
S1130DF0C80ED91E0D2C000CEE08FF08C40ED51E1B
S1130E00E61EF71E44A155A184A595A5A4A9B5A9DC
S1130E1064AD75AD840F951F8A0F9B1F860F971FB6
S1130E20092E000CAA0BBB0BAC01BD014C0D5D1DC2
S1130E306E1D7F1D2150310919F6DB01CA0177238C
S1130E401CF40F96A11DB11D689413F8B595A795D0
S1130E50979587951694D1F7DF91CF911F91FF90C5
S1130E60EF90DF90CF9008950F931F93CF93DF936C
S1130E70809304219093052120EC31E092E0F90164
S1130E809287E0E2F0E0E491C0E0D2E0EC87E1E2B6
S1130E90F0E0E491ED87E4E2F0E0E491A0E4B2E074
S1130EA01C96EC931C97E5E2F0E0E4911D96EC931C
S1130EB01D97F901128600E016E08FEFF801868392
S1130EC0828320E236E083EFF9018683828360E245
S1130ED077E040E1FB014683418387E0F801808BA2
S1130EE0818B828B838B848B858B868B878BF9019B
S1130EF0808B818B848B858B868B878BFB01848B8A
S1130F001AA21AA61AAA1AAE92961C9292979A96A6
S1130F101C929A97D2961C92D297DA961C92DA97E0
S1130F2098A398A798AB98AF90969C93909798960F
S1130F309C939897D0969C93D097D8969C93D89747
S1130F4085E089A389A789AB89AF85E491968C93C1
S1130F50919799968C939997D1968C93D197D9968A
S1130F608C93D997498380E38A831B829C8311964F
S1130F704C93119712968C93129713961C92139775
S1130F8014969C93149781E088838C93DF91CF917E
S1130F901F910F9108955F926F927F928F929F920B
S1130FA0AF92BF92CF92DF92EF92FF920F931F9373
S1130FB0CF93DF93CDB7DEB72D97CDBFDEBFA09023
S1130FC00421B0900521A114B10409F48DC08DE071
S1130FD0EEEDF0E2DE01119601900D928A95E1F7B3
S1130FE050900620552029F0650128E1C20ED11C3D
S1130FF001C06501CE0101967C01860198E1C90E0C
S1131000D11C0F2EF0EA6F2EF02D0F2EFFE07F2E55
S1131010F02D0F2EF0E68F2EF02D0F2EF0EF9F2ED9
S1131020F02DF70181917F01AEDEBC01990F880B91
S1131030990B0E94FE2D28ED3EE442E85DE30E94F8
S11310408A2E0E94CB2D9B01275F3F4FAB01445E4C
S11310505F4F4732510568F0C9012036304F14F410
S1131060882D992D813A2FE092072CF0862D972D0B
S113107002C080E090E0F801819391938F01209168
S1131080022130910321820F931F809302219093B8
S11310900321EC15FD0529F68D8575DEBC01990F3C
S11310A0880B990B0E94FE2D20E631E040E35FE3BC
S11310B00E948A2E0E94CB2DF50162AB73AB5110B6
S11310C00AC0809102219091032180AB91AB1092D0
S11310D002211092032181E0582650920620E0E27A
S11310E0F7E080E1818387832D96CDBFDEBFDF915A
S11310F0CF911F910F91FF90EF90DF90CF90BF9011
S1131100AF909F908F907F906F905F90089586E549
S113111092E09F938F930E94F0331F9282E08F930B
S11311201F9283E18F9389E492E09F938F930E94AF
S1131130F0338DB79EB708968DBF9EBF089588E59E
S113114092E0E7E0F1E2DF019C011D922150304082
S1131150E1F766E172E08DE391E20E94713388E683
S113116090E080935F239093602310926123109208
S113117062230895CCDFE3CF089520915F2330915B
S1131180602387E592E0821B930B1816190614F06E
S113119080E090E00895DF92EF92FF920F931F9307
S11311A0CF93DF938C017B01DFB6F894E6DFBC01BB
S11311B0892B81F0CFE5D3E2888199819701A80139
S11311C0895F9E4D0E94763428813981820F931F56
S11311D088839983DFBEDF91CF911F910F91FF9098
S11311E0EF90DF9008951F93CF93DF93CDB7DEB7D1
S11311F0BE01695F7F4FFB0181919191BF011FB7D0
S1131200F894C9DF1FBFDF91CF911F910895CF9349
S1131210C82F80910621811104C081E080930621AA
S113122007C082EC92E09F938F93DDDF0F900F90C5
S1131230C13071F028F0C23099F0C330C9F01FC03A
S11312408DEA92E09F938F93CEDF0F900F9017C09B
S113125087E992E09F938F93C6DF0F900F900FC0A2
S113126084E892E09F938F93BEDF0F900F9007C0A6
S11312708DE692E09F938F93B6DF0F900F90CF91FE
S11312800895CF93C82FC3DFC13079F028F0C2305E
S1131290A9F0C330E1F023C085EE92E09F938F93D1
S11312A00E94F0330F900F901AC08CED92E09F9340
S11312B08F930E94F0330F900F9011C083ED92E052
S11312C09F938F930E94F0330F900F9008C08AEC85
S11312D092E09F938F930E94F0330F900F90CF91E1
S11312E00895DF92EF92FF920F931F93CF93DF93B2
S11312F0CDB7DEB78E01055F1F4FF801E190F19085
S11313008F01DFB6F894AF01B70180917B279091EC
S11313107C270E946834B801C7013DDFDFBEDF913E
S1131320CF911F910F91FF90EF90DF900895DF927E
S1131330EF92FF920F931F93CF93DF93CDB7DEB756
S11313408E01055F1F4FF801E190F1908F01DFB628
S1131350F89483E192E09F938F930E94F0338EE0A0
S113136092E09F938F933FDFA801B70180917B2781
S113137090917C270E946834B801C7010CDFDFBE5E
S11313800F900F900F900F90DF91CF911F910F91BD
S1131390FF90EF90DF900895DF92EF92FF920F930A
S11313A01F93CF93DF93CDB7DEB70B851C85ED84F8
S11313B0FE84DFB6F89480916123801304C0809189
S11313C062238117A9F01F921F931F920F9381E04C
S11313D092E09F938F930E94F0332CEF31E03F9380
S11313E02F9301DF0093612310936223CDBFDEBFEF
S11313F0AE01415F5F4FB70180917B2790917C27BD
S11314000E946834BE01615F7F4FC701C4DEDFBE46
S1131410DF91CF911F910F91FF90EF90DF9008958E
S11314200F93CF93DF931F92CDB7DEB72FB72983E6
S1131430F8941BBEFC0108ED04BF608389818FBF53
S11314400F90DF91CF910F9108956F71862B809348
S113145055000895682B81E490E0E2CF08950F933E
S11314601F93CF93C82F00E410E0F8016081687FD8
S1131470682B80E490E0D4DFF80180818C23CF9145
S11314801F910F910895292F33272230310559F0E8
S11314902330310569F02130310529F582E190E0EE
S11314A028E633E029C08EE390E02AE233E024C04A
S11314B099278130910559F08230910571F0892B7B
S11314C0B9F4E6E2F3E0849190E09F0115C0ECE00A
S11314D0F3E0849190E09F010FC0EEEEF2E084917E
S11314E090E09F0109C080E090E020E030E004C07B
S11314F080E090E020E030E0FA0120833183089519
S1131500CF93DF93EC01FC0170968BE0DF011D9219
S11315108A95E9F782E08C83898783E08E8761E08E
S1131520CE010196D5D5882351F061E0CE0106960F
S1131530CFD5882321F061E0CE010B96C9D5DF9188
S1131540CF910895CF93FC01909176249430F9F4CF
S113155084899589A689B789892B8A2B8B2BC9F015
S1131560C62F8181ABD480917F2490918024FC018B
S1131570EF5BFF4F208131978081281720F056D4EC
S113158050D6811107C08C2F89D480E003C082E03B
S113159001C082E0CF910895FB01682F8485958571
S11315A0D1DF21E030E0811102C020E030E0882763
S11315B09927821B930B0895CF93DF93FC0190919D
S11315C076249430D1F584899589A689B789892BA5
S11315D08A2B8B2BA1F1818171D480918324882360
S11315E04CF4E0917F24F0918024EF5BFF4F8081E5
S11315F090E00DC020917F2430918024F901E05CBB
S1131600FF4F80813196208190E0821B9109892BC4
S1131610C1F080917F2490918024FC01EF5BFF4F07
S1131620D0813197C08102D4DC1768F0FAD5C82F75
S113163081110BC0FBD38C2F08C082E006C082E06E
S113164004C080E002C080E000C0DF91CF91089523
S1131650CF93DF93FC0190917624943081F48489B4
S11316609589A689B789892B8A2B8B2B41F0EF01A9
S1131670818124D463D4882311F0CE019DDFDF91CE
S1131680CF910895CF93DF93FC0190917624943009
S113169009F048C084899589A689B789892B8A2B42
S11316A08B2B09F442C0868109D454D4882309F4CD
S11316B03FC08091832488234CF4E0917F24F091EF
S11316C08024EF5BFF4FC081D0E00DC080917F2468
S11316D090918024FC01E05CFF4FC08131968081B1
S11316E0D0E0C81BD109209711F4B9D323C080914D
S11316F0832488234CF4E0917F24F0918024EF5BD1
S1131700FF4FC081D0E016C080917F249091802447
S1131710FC01E05CFF4FC08131968081D0E0C81BA2
S1131720D10908C0C0E0D0E005C0C0E0D0E002C0EC
S1131730C0E0D0E0CE01DF91CF910895CF93DF9345
S113174020917624243009F052C0FC014489558943
S113175066897789452B462B472B09F44BC0868134
S1131760ADD3F8D3882309F448C080918324882317
S11317704CF4E0917F24F0918024EF5BFF4F808153
S113178090E00DC020917F2430918024F901E05C29
S1131790FF4F80813196208190E0821B9109892B33
S11317A021F06CD3C82FD0E002C0CFEFDFEF8091DF
S11317B0832488234CF4E0917F24F0918024EF5B10
S11317C0FF4F208130E00DC040917F245091802450
S11317D0FA01E05CFF4F20813196808130E0281BC4
S11317E03109232B69F43BD38C2F9D2F0BC08FEF32
S11317F09FEF08C08FEF9FEF05C08FEF9FEF02C0F0
S11318008C2F9D2FDF91CF910895FC0184859585C0
S113181095DF992314F48EEF9FEF0895FB012EE0DA
S1131820DB011D922A95E9F723E023832CEC3AE0AF
S11318302087318725E03CE022873387848795879A
S113184008950895FF920F931F93CF93DF93EC01B4
S11318509AD3882309F47EC0288130E080917B24C8
S113186090917C248217930709F074C080917824A6
S1131870813259F018F4803229F16CC0823209F4B3
S113188050C0833209F45CC065C080917724813AEA
S113189009F060C091D352D38823E9F38C89FD8881
S11318A00E891F89FBD28F2DF9D2802FF7D2812F79
S11318B0F5D2888DF3D2898DF1D28A8DEFD2B6D24A
S11318C099D448C080917724813209F043C074D3FD
S11318D005C080917624882309F43CC03BD3882337
S11318E0C1F3CCD2F82ECAD2182FC8D2082FC6D230
S11318F0402F50E060E070E0BA0155274427782B70
S11319004F29512B4C8B5D8B6E8B7F8BB7D2888F7D
S1131910B5D2898FB3D28A8FA2D26CD4CE0191DF93
S113192019C0809177248132A9F446D363D480917D
S1131930792490917A24888B998BCE0182DF0AC016
S113194080917724813231F437D354D4609179244F
S1131950CE0177DFDF91CF911F910F91FF90089512
S1131960EF92FF920F931F93CF93DF93CDB7DEB720
S1131970EA97CDBFDEBF07E714E20F2EFFE7EF2E95
S1131980F4E2FF2EF02D7AD2F80181938F01EE1547
S1131990FF05C9F70E94A41DF6D2882309F4FEC0EE
S11319A0E7E7F4E290818181853009F46BC030F47B
S11319B0813091F168F0833079F1F0C0883009F416
S11319C0C5C0893009F4CBC0863009F0E7C06EC0C9
S11319D0903821F0923809F0E1C008C010917324C6
S11319E080917424882381F012600EC080917B243E
S11319F08F7064D2E0918124F0918224118112FBD2
S1131A00112710F980E05AD2D7D2812F47D280E033
S1131A1045D20CD2EFD3C2C0992309F4C5C0923089
S1131A2009F0BCC0C6C091E0833009F090E0909307
S1131A30742423C0E0917B241E2F1F7009F4AEC0D0
S1131A40812F3CD280917824833011F4E1D215C0E7
S1131A50E0918124F091822481818B7F818324E829
S1131A60129FF0011124EB53FB4D1082E09181246D
S1131A70F091822480818E7F808380E01FD29CD26B
S1131A80B9D38CC091118AC0109179241F7794D254
S1131A90B1D354D28823E9F31093C304111102C0C3
S1131AA082E001C083E08093762478C0905892301D
S1131AB008F074C08091792490917A248C3DE3E0FD
S1131AC09E07A1F583E08A838AE389837FB7F8942C
S1131AD0AE014D5F5F4F20E038E0A0ECB1E062E082
S1131AE01A966C931A97E32FF0E084911A961C923D
S1131AF01A9720FF03C082958F703F5F8F708A30E2
S1131B0018F090E0C79602C090E0C096FA01819365
S1131B109193AF012F5F2C3119F77FBF4DD26AE348
S1131B2070E0CE01019665D09AD138C0AE014F5F06
S1131B305F4F60917B24A7DC8C01892B79F13CD227
S1131B40B80189819A81E2D08AD128C0903831F5D0
S1131B5033D280917224A2D169D14CD31FC0911188
S1131B601DC0809179248230C8F426D280917924D2
S1131B70809372243FD380917224882321F084E0DF
S1131B808093762409C08091C304811102C081E04E
S1131B9001C084E0809376240E949F1DF4D18823A1
S1131BA071F00AD235D20BC0909179249130B1F7FB
S1131BB03ACF80917924882309F43CCF5ECFEA960A
S1131BC0CDBFDEBFDF91CF911F910F91FF90EF90BA
S1131BD00895CF9380917624882349F0C09183247B
S1131BE080E06CD1D0D18111BBDE8C2F67D1CF9135
S1131BF00895CF92DF92EF92FF920F931F93CF93AA
S1131C00DF93C82ED92E8B0180918324806856D10E
S1131C10C0917D24D0917E24C017D10738F00115DE
S1131C20110519F403D1E80101C0E801EC2CFD2CE5
S1131C30D12C44C080917624882309F453C0853084
S1131C4009F452C0A0D1811151C084D1811145C081
S1131C5075D1882399F180918324882374F4E091C9
S1131C607F24F0918024EF5BFF4F008110E02097E8
S1131C70F1F00830110578F01AC080917F2490911A
S1131C808024FC01E05CFF4F00813196808110E0EC
S1131C90081B1109ECCFF70181917F01FFD0219737
S1131CA00F5F1F4F209719F008301105A1F7DD24AD
S1131CB0D3940830110509F0D12CB8D0209709F03D
S1131CC0B9CFD110B7CF09C080917624882381F091
S1131CD0853081F058D181110FC03CD18823A1F304
S1131CE080E00BC082E009C083E007C081E005C04A
S1131CF082E003C083E001C081E0DF91CF911F91B6
S1131D000F91FF90EF90DF90CF900895DF92EF92C4
S1131D10FF920F931F93CF93DF93E82EF92E8B013D
S1131D20809183248068CAD0C0917D24D0917E2480
S1131D30C017D10738F00115110519F477D0E8015F
S1131D4001C0E8010E2D1F2DD12C49C080917624AD
S1131D50882309F458C0853009F457C014D181117F
S1131D6056C0F8D081114AC0E9D08823C1F18091CE
S1131D70832488237CF4E0917F24F0918024EF5B1A
S1131D80FF4FE080F12C209711F188E0E816F10470
S1131D9078F01DC080917F2490918024FC01E05C48
S1131DA0FF4FE08031968081F12CE81AF108EBCFE7
S1131DB0F801849173D00F5F1F4F2197FFEFEF1A43
S1131DC0FF0A209721F088E0E816F10489F7DD2462
S1131DD0D394E8E0EE16F10409F0D12C27D0209733
S1131DE009F0B4CFD110B2CF09C0809176248823F2
S1131DF081F0853081F0C7D081110FC0ABD088232A
S1131E00A1F380E00BC082E009C083E007C081E059
S1131E1005C082E003C083E001C081E0DF91CF917F
S1131E201F910F91FF90EF90DF900895E09181242E
S1131E30F0918224A0917F24B0918024AF5BBF4FA6
S1131E408C9190E08283938380818D798083E0916B
S1131E507F24F0918024EF5BFF4F10820895E0917E
S1131E608124F091822480818D798083E0917F2484
S1131E70F0918024EF5BFF4F1082089580917F24BE
S1131E8090918024FC01EF5BFF4F208131E0320F01
S1131E903083FC01E20FF11D8081089520917F249D
S1131EA030918024F901EF5BFF4F908141E0490FAD
S1131EB04083F901E90FF11D808308958093832401
S1131EC0282F2F7030E04091C6045091C704882316
S1131ED0E4F464E8629FC001639F900D11248A5367
S1131EE09B4D80937F2490938024C9018295929581
S1131EF0907F9827807F982708969A01280F391F8A
S1131F002093812430938224089564E8629FC00161
S1131F10639F900D11248C579B4D80937F24909345
S1131F20802422953295307F3227207F3227240F58
S1131F30351F209381243093822408958091832433
S1131F408068BCDFE0918124F091822480818695B1
S1131F5081700895809183248F77B0DFE09181248C
S1131F60F0918224808185FF0CC080917F24909120
S1131F70802422813381FC01E05CFF4F208381E0D7
S1131F80089580E00895809183248F7797DFE0910E
S1131F908124F0918224808184FF0CC080917F246D
S1131FA09091802422813381FC01E05CFF4F2083E7
S1131FB081E0089580E00895809183248F777EDF07
S1131FC0E0918124F091822480818D788083E09156
S1131FD08124F0918224808181608083E0917F2438
S1131FE0F0918024EF5BFF4F1082809183248068FE
S1131FF065DFE0918124F091822480818160808377
S1132000E0917F24F0918024EF5BFF4F10820895CC
S1132010E0918124F0918224818184608183E09124
S11320208124F09182248181807C803459F48091D0
S11320308324805843DFE0918124F09182248181BC
S11320408460818308951F93CF93DF93D82F162F35
S1132050C42F34DFE0918124F09182241182E09135
S11320608124F0918224DD23A4F01082E091812464
S1132070F09182241183E0918124F09182241282D0
S1132080138280917F24909180248483958340E0FF
S113209014C082E08083E0918124F0918224118332
S11320A0E0918124F09182241282138280917F2412
S11320B090918024848395834C2FFC01E05CFF4F36
S11320C040833196108281E0DF91CF911F91089572
S11320D0AF92BF92CF92DF92EF92FF920F931F9332
S11320E0CF93DF93662309F455C0A62E7C018C019F
S11320F084E0E80EF11CB12CF801C080CC2009F476
S11321003FC0C181D281F70131978081F70190816D
S1132110923010F448E001C048E1C930D10550F0D4
S113212028E030E090E09F5F220F331F2C173D071B
S1132130D0F301C090E0942B2C2D2F7030E025308B
S1132140310554F59F7EC134D10540F5882319F03B
S1132150813021F006C09064D92E07C0906CD92E2E
S113216009C09068D92E811105C04C2F6D2D80E8CF
S11321708C0D69DF4C2F6D2D8C2D65DF882379F054
S1132180B3940B5F1F4FF5E0EF0EF11CBA10B4CF00
S113219081E005C081E003C080E001C080E0DF9100
S11321A0CF911F910F91FF90EF90DF90CF90BF9050
S11321B0AF90089520E030E0A0ECB4E01696ED91E5
S11321C0FC911797C90182959295907F9827807FFB
S11321D09827E80FF91F118616964D915C91179771
S11321E0FA01E80FF91F11822F5F3F4F25303105A7
S11321F029F7089580917724882374F404C080918A
S11322007624882369F0A6DE8823C9F328CE0895AE
S113221080917624882321F091DE8823C9F306CEA9
S11322200895FF920F931F93CF93DF93E091C60419
S1132230F091C704E05BFF4FC081D181FF24F39488
S113224000EC14E002C0F22EEC0180918324882378
S113225024F474DE882321F022C07CDE811121C0A5
S1132260809176248823F9F08530F9F0E091812477
S1132270F0918224818182FD1AC0D8011696ED91D5
S1132280FC911797E05BFF4F80819181C817D907B4
S1132290D9F22FEF2F0DF110D6CF84E009C080E0E2
S11322A007C080E005C082E003C083E001C081E094
S11322B0DF91CF911F910F91FF900895CF93DF93FA
S11322C0E0E4F0E0148284818360848350D056D0AB
S11322D0C0ECD4E088818F77888388818068888384
S11322E01092762410927224109274241092732403
S11322F088818064888348E068E480E8A4DE48E05C
S113230068E480E0A0DE88858064888789818160B4
S11323108983DF91CF910895CF93DF932FB7F894FA
S1132320C0ECD1E082E08A87EAE1F0E0E491A0EC3D
S1132330B4E0DA96EC93DA97EBE1F0E0E491DB9623
S1132340EC93DB971A8689E197E28E7F16968D933C
S11323509C93179784E18C9383E018968C932FBFFA
S113236081E080937524AADFDF91CF910895E0EC9A
S1132370F4E080858370808711860895E0ECF4E0B2
S11323808FEF8287848708951F920F920FB60F9262
S1132390112408B60F9218BE09B60F9219BE0BB6D7
S11323A00F921BBE2F933F934F935F936F937F9333
S11323B08F939F93AF93BF93EF93FF938091CA043E
S11323C086FF07C080E48093CA04109276240E949A
S11323D09B1D8091CA0485FF16C080E28093CA04C5
S11323E080917224882321F084E08093762409C0AC
S11323F08091C304811102C081E001C083E0809315
S113240076240E94971D8091CA0484FF15C0E0ECD5
S1132410F4E080E1828782E0809376241092722433
S11324201382C8DE48E068E480E80DDE48E068E432
S113243080E009DE0E949E1DFF91EF91BF91AF9154
S11324409F918F917F916F915F914F913F912F91C8
S11324500F900BBE0F9009BE0F9008BE0F900FBED9
S11324600F901F901895AFD72BEC37E04FEF68EE25
S113247073E080E090E00E9487272CED3CE14FEF71
S11324806DE770E080E090E00E94872728E73DE157
S11324904FEF68EE73E080E090E00E9487272FE61C
S11324A035E14FEF60EC74ED81E090E00E94872706
S11324B024E535E14FEF68EB7BE080E090E00E949B
S11324C0872721ED35E14FEF64E670E080E090E08E
S11324D00E94872721E134E14FEF68EE73E080E04A
S11324E090E00E9487272AEB32E14FEF68EE73E019
S11324F080E090E00E94872720EB35E14FEF60EA0F
S11325007BEB8DE090E00E9487270E94872880E083
S113251090E0089508950F931F93CF93DF9300D015
S113252000D0CDB7DEB78E010F5F1F4F86E0F801F4
S113253011928A95E9F78091BC209091BD208A83FD
S11325409B838AE08E8381E08983C8010E94D5221F
S113255082E08983C8010E94D52283E08983C8016F
S11325600E94D5222696CDBFDEBFDF91CF911F9169
S11325700F910895CF92DF92EF92FF920F931F93E2
S1132580CF93DF9381E00E944109809184238230BC
S1132590F9F0833009F49CC0813009F02EC188E43D
S11325A096E09F938F93C2E0CF9389E08F930E942C
S11325B0CC098DE296E09F938F93CF938AE08F931B
S11325C00E94CC098DB79EB708968DBF9EBF1DC1D2
S11325D08DE096E09F938F93C2E0CF930F2EF9E0A6
S11325E0FF2EF02DFF920E94CC0909E110E2F801C0
S11325F0D485E584D684C7840E94241CCF92DF92BC
S1132600EF92DF939F938F93F80181891F928F93A9
S11326108FEE95E09F938F93D9E2DF93FF920E9410
S1132620CC0984EE95E09F938F93CF930F2EFBE01C
S1132630FF2EF02DFF920E94CC0989ED95E09F9327
S11326408F93CF930CE00F930E94CC098DEC95E00F
S11326509F938F93CF931DE01F930E94CC0982EC2C
S113266095E09F938F93CF938EE08F930E94CC0934
S11326708DB79EB780968DBF9EBF89EA95E09F93E4
S11326808F93DF93FF920E94CC098CE895E09F938F
S11326908F93DF930F930E94CC0988E795E09F9373
S11326A08F93DF931F930E94CC0983E693E29F9359
S11326B08F938DE695E09F938F93CF9380E18F93D3
S11326C00E94CC09EDB7FEB77296EDBFFEBF9DC068
S11326D08CE595E09F938F93D2E0DF9319E01F93ED
S11326E00E94CC0980E595E09F938F93C9E2CF9334
S11326F01F930E94CC0983E395E09F938F93DF930C
S11327001AE01F930E94CC0983E295E09F938F9374
S1132710CF931F930E94CC098DE195E09F938F93F3
S1132720DF931BE01F930E94CC0985E195E09F9302
S11327308F93CF931F930E94CC098BE095E09F93D6
S11327408F93DF931CE01F930E94CC0983E095E0F4
S11327509F938F93CF931F930E94CC098DB79EB7FD
S113276080968DBF9EBF8BEF94E09F938F93DF93F2
S11327701DE01F930E94CC0981EF94E09F938F93F7
S1132780CF931F930E94CC098FEC94E09F938F9377
S1132790DF931EE01F930E94CC098DEA94E09F937F
S11327A08F93CF931F930E94CC098EE994E09F935B
S11327B08F93DF931FE01F930E94CC098EE894E06F
S11327C09F938F93CF931F930E94CC0983E794E048
S11327D09F938F93DF93D0E1DF930E94CC0987E529
S11327E094E09F938F93CF93DF930E94CC09EDB72E
S11327F0FEB7B096EDBFFEBF08C08BE696E09F9390
S11328008F930E9497090F900F9083E00E944109D3
S1132810DF91CF911F910F91FF90EF90DF90CF90B8
S113282008956F927F928F929F92AF92BF92CF92B0
S1132830DF92EF92FF920F931F93CF93DF93CDB765
S1132840DEB76497CDBFDEBF0E949F0880E00E9480
S11328504109E0918423F0E0EE0FFF1FED58F74F9C
S113286065917591CE0101967C010E947133FF92AE
S1132870EF928EE494E09F938F9312E01F931F9343
S11328800E94CC09E091B920F0E0EE0FFF1FE5595A
S1132890F74F65917591C7010E9471338091BB20F8
S11328A01F928F930F2EFAEBCF2EF0E2DF2EF02D36
S11328B0F601808190E001969F938F93FF92EF92AF
S11328C088E394E09F938F931F9383E08F930E94F8
S11328D0CC09F6018081D8D79F938F9382E394E04B
S11328E09F938F930E947109EEEBF0E283818F93A3
S11328F082818F9381818F9380818F93E5E6F0E2CB
S113290083818F9382818F9381818F9380818F9331
S1132910809129201F928F938DE094E09F938F9351
S11329201F9384E08F930E94CC09CDBFDEBFEBE5FB
S1132930F0E281818F9380818F93EDE5F0E28181D4
S11329408F9380818F9383EF93E09F938F931F9353
S113295085E08F930E94CC098BEE93E09F938F9335
S11329601F9386E08F930E94CC0989E190E20E9434
S1132970712583EE93E09F938F931F9387E08F934A
S11329800E94CC098FE190E20E945B25CDBFDEBF9F
S11329908091C220882349F08EED93E09F938F931A
S11329A00E9471090F900F9054C088ED93E09F939B
S11329B08F930E9471090F900F904BC06701F3E051
S11329C0CF0ED11CF80187818F9386818F938581E7
S11329D08F9384818F9383818F9382818F9381815D
S11329E08F9380818F93DF92CF92FF92EF929F9289
S11329F08F926F927F920E94CC09F801878D8F93FA
S1132A00868D8F93858D8F93848D8F93838D8F93F4
S1132A10828D8F93818D8F93808D8F93DF92CF9250
S1132A20FF92EF92BF92AF926F9283E0870D8F93E4
S1132A300E94CC09085F1F4F7394F4E0EF0EF11C61
S1132A40CDBFDEBF95E07912B9CF83E00E94410982
S1132A5019C00BE210E2EE24E394F12C689477247D
S1132A6071F80F2EF8EB8F2EF3E09F2EF02D0F2E22
S1132A70F9E26F2EF02D0F2EF8E9AF2EF3E0BF2E02
S1132A80F02D9CCF6496CDBFDEBFDF91CF911F9117
S1132A900F91FF90EF90DF90CF90BF90AF909F90F9
S1132AA08F907F906F90089580918423823061F09D
S1132AB081E2E3E6F3E2DF011D928A95E9F704C0BF
S1132AC083EC90E20E949E0B83EC90E20E94420B06
S1132AD0892BB1F70E94BA08A4DE4CCD089581E099
S1132AE080938423E1CF0895CF93F9DF1092C2201D
S1132AF0CFB7F89441E050E06CE070E089EB90E2ED
S1132B000E9434388091B9208150823018F5CFBFAB
S1132B10CFB7F89441E050E06DE070E082EC90E2D1
S1132B200E943438CFBFCFB7F89446E050E066E057
S1132B3070E08FE190E20E943438CFBFCFB7F894B1
S1132B4046E050E060E070E089E190E20E943438B1
S1132B50CFBF04C081E08093B920D9CFCF9108952D
S1132B60CF93CFB7F89446E050E066E070E08FE191
S1132B7090E20E944F38CFBFCFB7F89446E050E0C0
S1132B8060E070E089E190E20E944F38CFBF8AE7AD
S1132B9093E09F938F930E9497090F900F90CF918A
S1132BA00895CF92EF920F931F93CF93DF93CDB7F6
S1132BB0DEB72A97CDBFDEBF83EC90E20E94420BC2
S1132BC0892B09F466C383EC90E20E949E0B0E9459
S1132BD06933082F182F04C083EC90E20E949E0BE7
S1132BE083EC90E20E94420B892BB1F781E194E1DE
S1132BF00E9447288AEB92E10E9447288AE892E1E2
S1132C000E9447288FE695E10E94372884E595E1E4
S1132C100E9437288BE892E10E946428AB01BC0132
S1132C20403E23E9520724E06207710520F440EE98
S1132C3053E964E070E08BE892E10E9471280B3163
S1132C4029F481E0809384232FDF23C3809184239C
S1132C508230A9F0833009F40EC2813009F019C31F
S1132C60103241F0133709F014C382E080938423B7
S1132C701BDF0FC383E08093842316DF0AC31F8204
S1132C80188619861A86FE01319686E0DF011D92A8
S1132C908A95E9F7183011F01F3769F4E09183231E
S1132CA0EE2309F4F6C2E150E0938323F0E0ED59FA
S1132CB0FC4D1082EEC21D3059F41092832366E657
S1132CC078E083E693E20E948333892B19F52EC0C2
S1132CD080EE800F803608F0DCC2E0918323EF3170
S1132CE048F481E08E0F80938323F0E0ED59FC4D8E
S1132CF00083CFC281E2E3E6F3E2DF011D928A950D
S1132D00E9F788E796E09F938F930E9497090F90C5
S1132D100F90BFC282E08093B9208EE498E09F9325
S1132D208F930E9497090F900F909DC168E478E0FB
S1132D3083E693E20E948333892B61F081E08093E0
S1132D40B9208FE298E09F938F930E9497090F9088
S1132D500F9089C16BE278E083E693E20E948333AB
S1132D60892B61F083E08093B92084E198E09F93FC
S1132D708F930E9497090F900F9075C16EE078E0D1
S1132D8083E693E20E948333892B81F466E078E042
S1132D9083E693E20E948333892B41F46FEF77E05B
S1132DA083E693E20E948333892B11F027D55BC11C
S1132DB069EF77E083E693E20E948333892B09F479
S1132DC04BC066EF77E083E693E20E948333892B5E
S1132DD051F181E08093C22061E08DE090E00E9497
S1132DE05E3888EE97E09F938F930E9497096FE176
S1132DF070E289E190E20E948F250F900F90882362
S1132E0009F431C1E9E1F0E22281418160818FE17D
S1132E1090E20E94C42621E040E060E08FE190E26D
S1132E200E94712620C164EE77E083E693E20E945B
S1132E308333892B09F417C11092C22060E08DE01E
S1132E4090E00E945E3885ED97E09F938F930E94F7
S1132E5097090F900F9007C1CE0103969F938F930C
S1132E6001979F938F9301979F938F938DEB97E097
S1132E709F938F9383E693E29F938F930E944D34A5
S1132E80CDBFDEBF039709F040C02B814A81698121
S1132E9089E190E20E94C426882371F161DE2B81CE
S1132EA04A8169818FE190E20E94C4268FE997E00C
S1132EB09F938F930E949709CE0101960E94422509
S1132EC06FE170E289E190E20E948F250F900F90EC
S1132ED0882309F4C8C0E9E1F0E2228141816081DC
S1132EE08FE190E20E94C42621E040E060E08FE19F
S1132EF090E20E947126B7C08BE797E09F938F936F
S1132F000E9497090F900F90AEC0CE0106969F9332
S1132F108F9301979F938F9301979F938F9383E64A
S1132F2097E09F938F9383E693E29F938F930E94FE
S1132F304D34CDBFDEBF0397C9F52E814D816C8121
S1132F4089E190E20E947A25882339F109DE85E43B
S1132F5097E09F938F930E949709CE0101960E9458
S1132F605B256FE170E289E190E20E948F250F906A
S1132F700F90882309F477C0E9E1F0E222814181CE
S1132F8060818FE190E20E94C42621E040E060E08D
S1132F908FE190E20E94712666C081E297E09F93E0
S1132FA08F930E9497090F900F905DC0CE010696F3
S1132FB09F938F9301979F938F9301979F938F93E1
S1132FC089E097E09F938F9383E693E29F938F9397
S1132FD00E944D34CDBFDEBF0397E9F5E9E1F0E28D
S1132FE0CE80ED800C812281418160818FE190E26D
S1132FF00E948326882331F1B3DD8AEE96E09F9305
S11330008F930E949709CE0101960E9471256FE16A
S113301070E289E190E20E948F250F900F9088233F
S113302011F1E9E1F0E22281418160818FE190E2D6
S11330300E94C42621E040E060E08FE190E20E941B
S1133040712611C085EC96E09F938F930E94970997
S11330500F900F9008C084E996E09F938F930E948D
S113306097090F900F9081E2E3E6F3E2DF011D92EE
S11330708A95E9F70EC18091B92089832091BA20FD
S1133080422F50E081E090E0022E02C0880F991F89
S11330900A94E2F78A839B831C821D82163609F404
S11330A086C0B0F5163309F4E5C0D0F4113309F441
S11330B0D2C050F41E3209F4A7C0103309F4C8C0BA
S11330C01C3209F0E6C09DC0133309F4CAC008F4E9
S11330D0C5C0143309F4C8C0153309F4C8C0D9C035
S11330E0113609F497C048F4183309F4C9C008F438
S11330F0C4C0193309F4C7C0CCC0133609F478C06E
S113310008F473C0143609F48BC01536D9F1C1C064
S11331101F3609F467C0B0F41A3609F493C030F4CA
S1133120183609F468C008F44EC089C01C3609F486
S113313080C008F48AC01D3609F460C01E3609F444
S113314075C0A7C0163709F441C058F4113799F077
S113315008F445C0133709F460C0153709F46CC08E
S113316098C01837D9F008F452C0193709F45BC075
S11331701A3701F18EC0222309F48BC02150209309
S1133180BA2087C08091BB2090E001974817590767
S11331900CF07FC02F5F2093BA207BC081E08E8328
S11331A08091BC209091BD208A839B836EC081E076
S11331B08E836BC082E08E838091BC209091BD2071
S11331C08A839B8362C082E08E835FC08FE08E839C
S11331D08091BC209091BD208A839B8356C083E05C
S11331E08E8353C088E08E8350C089E08E834DC0A7
S11331F08AE08E834AC08BE08E8347C08CE08E8346
S113320044C08EE08E8341C08DE08E833EC084E056
S11332108E833BC087E08E8338C085E08E8335C0C3
S113322086E08E8332C083E18E832FC082E18E8359
S11332302CC084E18E8329C085E18E8326C086E17B
S11332408E8323C087E18E8320C088E18E831DC0D6
S113325089E18E831AC08AE18E8317C08BE18E8345
S113326014C08CE18E8311C08DE18E830EC08EE17B
S11332708E830BC08FE18E8308C080E28E8305C0ED
S113328081E28E8302C082E28E83CE0101960E9487
S1133290D5222A96CDBFDEBFDF91CF911F910F912A
S11332A0EF90CF900895CF93E8E7F0E0C0818FE7E7
S11332B08083C430E1F038F4C13059F108F453C0CC
S11332C0C23061F059C0C031D9F018F4C830E1F10E
S11332D053C0C03239F1C03471F14EC085EA99E06F
S11332E09F938F930E9471090F900F9064C087E998
S11332F099E09F938F930E9471090F900F905BC088
S113330089E899E09F938F930E9471090F900F9021
S113331052C08FE799E09F938F930E9471090F9099
S11333200F9049C085E799E09F938F930E9471099C
S11333300F900F9040C08EE699E09F938F930E9468
S113334071090F900F9037C084E699E09F938F9393
S11333500E9471098EE090E00E943F3880932A20F9
S11333600F900F901DC08BE599E09F938F930E945F
S113337071090F900F901FC01F92CF9387E599E0BA
S11333809F938F930E9471098EE090E00E943F38D2
S113339080932A200F900F900F900F90C3FF11C0BD
S11333A08A3F78F461E0680F60932A208EE090E011
S11333B00E945E3806C08EE090E00E943F38809301
S11333C02A20CF9108958F929F92AF92BF92CF926D
S11333D0DF92EF92FF920F931F93CF93DF93A89501
S11333E06BE280E890E00E94100AE0E8F0E082815D
S11333F080FDFDCF60E081E890E00E94100AE0E8E3
S1133400F0E0828180FDFDCFC0E5D0E093E09883B9
S113341082E48A838881886088839E8360E180E077
S11334200E94250A88818061888360E080E00E9490
S11334302A0AA0E6B0E08BE115968C93159787EBEA
S113344016968C931697C0ECD1E082E08A87EDE162
S1133450F0E0E4911296EC931297ECE1F0E0E49141
S11334601396EC931A86E0E5F0E081819081892738
S11334708F71D9F784E00E942F0A81E08093600065
S113348080915500811104C081E08093680005C0DB
S1133490E0E5F0E080818E7F8083E0E0F6E08FEF6E
S11334A086830F2EF0E2CF2EF6E0DF2EF02D93EF81
S11334B0D60116969C931697828312969C93129724
S11334C094E011969C93119716969C93C0E8D6E0CD
S11334D08D83A0EAB6E015968C931597E0EEF6E09E
S11334E08583898311968C938183E0E0F7E085835B
S11334F0C0E2D7E09FE29D8390E19E8382838FE3C5
S11335008A830F2EF0ECEF2EF7E0FF2EF02D689457
S1133510BB24B3F8F701B582B18200EE17E083E073
S1133520D80115968C93159715968C9348E050E026
S113353067E870E080E196E00E94A63387E897E8A8
S1133540DC018093340690933506A0933606B0933D
S1133550370648E050E067E870E080E996E00E94B2
S1133560A63348E050E067E870E080EB96E00E9404
S1133570A63348E050E067E870E080EF96E00E94F0
S1133580A63348E050E060E870E080E197E00E94F4
S1133590A63348E050E060E870E080E397E00E94E2
S11335A0A63380E9F601808B818B828B838BE0E4E8
S11335B0F6E098EB908B918B828B838B848B858B3D
S11335C080E8868B878BE0E6F6E0808B818B828BAC
S11335D0838B848B858B8C8B8D8B8E8B8F8B88E9E7
S11335E0D70152968C9352978FEA53968C93F80195
S11335F0828B838BEE24E39403E010E026E041E029
S113360064E089E190E20E94172788E180937000CA
S113361085E08093710080937200B092730088E615
S11336208093740088E7809375008093760061E04E
S113363086E990E00E94100A0E948C116BE677E202
S113364083EC90E20E940E0CE9E7F7E28BE697E246
S1133650808391838283938387E08093A20078940C
S1133660FFEF27EA81E6F15020408040E1F700C0F7
S113367000008091252090912620A0912720B091D0
S11336802820892B8A2B8B2B69F5C0ECD1E082E0B2
S11336908A87E5E1F0E02491E4E1F0E04491E3E19C
S11336A0F0E03491E2E1F0E0849190E0A0E0B0E059
S11336B0B82FAA2799278827A32B822B50E0542FB1
S11336C04427052E000C660B770B842B952BA62B19
S11336D0B72B8093252090932620A0932720B09386
S11336E028201A868091252090912620A0912720B9
S11336F0B09128208115E5E19E07A105E3E0BE070E
S1133700D9F040F481152BE09207A10521E0B2071E
S1133710D9F01EC08115E5E19E07A105E4E0BE07CE
S113372079F08115F5E19F07A105F2E2BF0781F465
S113373081E0809329201FC082E0809329201BC050
S113374083E08093292017C08AE08093292013C046
S11337502FEF20932920BF93AF939F938F938FEAEA
S113376099E09F938F930E9497090F900F900F9069
S11337700F900F900F90B8D98BE290E20E9434071B
S11337801F921F9283EC8F9380E58F930F2E812CD1
S1133790F8E49F2EF8EEAF2EBB24B394F02D68947A
S11337A0CC24C6F8E12CF12C00E021E040E456E002
S11337B060E874E089E690E20E94982B8FE590E23D
S11337C00E9482278DED99E09F938F930E94710947
S11337D08BE697E268DD0F900F900F900F900F909B
S11337E00F90DF91CF911F910F91FF90EF90DF9099
S11337F0CF90BF90AF909F908F9008958AE499E006
S11338009F938F930E947109ABD92FEF83EF91E0BF
S1133810215080409040E1F700C00000E0ECF4E06B
S113382081818E7F81832FEF87E893E1215080404F
S11338309040E1F700C0000061E089E790E00E9459
S1133840100A0F900F900895CF93DF931F92CDB776
S1133850DEB72091022030910320CE010196821B15
S1133860930B20911720309118208217930724F48A
S113387080931720909318208091172090911820FE
S11338800F90DF91CF91089590912920913021F0EC
S1133890923009F448C08DC0833011F120F4813096
S11338A089F048F016C0853049F108F1863069F195
S11338B0873091F17EC064E479E087E090E20E9471
S11338C0713377C06CE379E087E090E20E94713352
S11338D070C064E379E087E090E20E94713369C0CC
S11338E06CE279E087E090E20E94713362C066E2A4
S11338F079E087E090E20E9471335BC060E279E096
S113390087E090E20E94713354C06AE179E087E075
S113391090E20E9471334DC062E179E087E090E269
S11339200E94713346C0833011F120F4813089F054
S113393048F016C0853049F108F1863069F18730C6
S113394091F137C06BE079E087E090E20E94713337
S113395030C064E079E087E090E20E94713329C0CE
S11339606DEF78E087E090E20E94713322C066EF49
S113397078E087E090E20E9471331BC06FEE78E03C
S113398087E090E20E94713314C068EE78E087E02B
S113399090E20E9471330DC061EE78E087E090E21E
S11339A00E94713306C06AED78E087E090E20E94DD
S11339B0713387E090E208958091B02081118BC02B
S11339C080918623811146C081E08093702080E637
S11339D08093712080EE8093722040E063E089E45C
S11339E00E94082C8FE79EE30197F1F700C00000C6
S11339F08091B020882349F08BEC98E09F938F93BB
S1133A000E9497090F900F9008951092702040E043
S1133A1061E089E40E94082C8FE79EE30197F1F7A7
S1133A2000C000008091B020882349F08AEB98E020
S1133A309F938F930E9497090F900F90089585EAA2
S1133A4098E09F938F930E94970981E08093862347
S1133A500F900F9042E060E089E40E94082C8FE709
S1133A609EE30197F1F700C000008091B1208130FE
S1133A7091F58091B620823071F56091902080910B
S1133A80912082958F7090E1699FB0011124682B79
S1133A90611588E0780798F480E090E00E94FC2D9E
S1133AA020E030E040E85DE30E948A2E6093BE206F
S1133AB07093BF208093C0209093C120089580E02C
S1133AC090E0A0E8BFEB8093BE209093BF20A0932A
S1133AD0C020B093C1200895E0ECF7E088E0818332
S1133AE086830895E0ECF7E088E081838583089578
S1133AF0809187238823D1F09091852381E08927C1
S1133B0080938523882389F0E7DF88E79DE10E947D
S1133B100F28009759F04AE050E060E070E0FC01A3
S1133B2046835783608771870895DCCF089581E0C9
S1133B30809387230895109287230895089583EC32
S1133B4090E20C94800A089583EC90E20C94220C89
S1133B500895662379F0A0E0B7E012964C9312978B
S1133B60CA0188279F70E0E2F7E0928316964C938F
S1133B7096830895882379F0A0E0B7E011964C93DA
S1133B801197CA0188279F70E0E2F7E091831596A8
S1133B904C9395830895A0E0B7E011964C93119748
S1133BA0CA0188279F70E0E2F7E0918316964C9350
S1133BB096830895FC019081913009F0E5C08581D8
S1133BC0823109F492C040F5893009F466C088F462
S1133BD0853009F44EC038F4833009F4B2C284301D
S1133BE009F442C0CDC0873009F44DC008F446C082
S1133BF04FC08E3009F465C048F48C3009F457C0C6
S1133C0008F05AC08A3009F44DC0BAC0803109F4B2
S1133C1062C008F45BC064C08B3109F489C088F4C5
S1133C20873109F471C038F4853109F463C08631F1
S1133C3009F465C0A5C0893109F470C008F469C0ED
S1133C4072C08F3109F488C030F48D3109F47AC020
S1133C5008F473C07CC0813209F488C008F481C0C0
S1133C60823209F488C08CC067E778E888E090E085
S1133C70089567E578EA88E090E0089567ED78E2D2
S1133C8088E090E0089567EB78E488E090E0089598
S1133C9067E378EC88E090E008956DE772E888E0E7
S1133CA090E0089567E978E688E090E008956FE889
S1133CB070E788E090E0089567EF78E088E090E0AE
S1133CC008956FE070EF88E090E0089567E078EF82
S1133CD088E090E008956DE572EA88E090E0089548
S1133CE06DE972E688E090E008956DEB72E488E097
S1133CF090E0089567EC78E388E090E0089567E445
S1133D0078EB88E090E0089567EA78E588E090E051
S1133D10089567E878E788E090E008956FEC70E331
S1133D2088E090E008956FE370EC88E090E00895F7
S1133D306FED70E288E090E008956FE570EA88E046
S1133D4090E008956FE970E688E090E008956FE1EF
S1133D5070EE88E090E008956FEE70E188E090E006
S1133D6008956FE670E988E090E008956FEA70E5E1
S1133D7088E090E008956FE270ED88E090E00895A7
S1133D8060E070E0CB010895933009F0EEC08581C6
S1133D90823109F497C038F58A3009F46CC098F47C
S1133DA0863009F454C048F4843009F446C008F05D
S1133DB049C0833009F4CAC1D4C0883009F451C061
S1133DC008F44AC053C08E3009F469C030F48C3012
S1133DD009F45BC008F454C05DC0803109F469C0C3
S1133DE008F462C06AC08B3109F493C098F4873137
S1133DF009F47BC048F4853109F46DC008F070C043
S1133E00833109F463C0ADC0893109F478C008F482
S1133E1071C07AC08F3109F490C030F48D3109F447
S1133E2082C008F47BC084C0813209F490C008F4D5
S1133E3089C0823209F490C094C067E378EC80EEC4
S1133E4092E8089567E178EE80EE92E8089567E9D4
S1133E5078E680EE92E8089567ED78E280EE92E8E5
S1133E60089567E578EA80EE92E8089567EB78E4D0
S1133E7080EE92E8089567EB78E480EE92E8089586
S1133E806FE370EC80EE92E808956FE070EF80EEDF
S1133E9092E8089567E278ED80EE92E8089567E08D
S1133EA078EF80EE92E8089567EE78E180EE92E88C
S1133EB0089560E070E0CB0108956BEF74E080EE4C
S1133EC092E8089560E070E0CB01089567EA78E530
S1133ED080EE92E808956BE974E680EE92E8089526
S1133EE06BE174EE80EE92E808956BEE74E180EE7F
S1133EF092E808956BE674E980EE92E808956FE81D
S1133F0070E780EE92E808956FED70E280EE92E83B
S1133F1008956FE570EA80EE92E808956FE970E61F
S1133F2080EE92E808956FE170EE80EE92E80895D5
S1133F306FEE70E180EE92E808956FE670E980EE2E
S1133F4092E808956FEA70E580EE92E808956FE2D2
S1133F5070ED80EE92E808956FEC70E380EE92E8E5
S1133F60089560E070E0CB010895923009F0F3C049
S1133F708581833109F491C040F5893009F465C025
S1133F8088F4853009F44DC038F4833009F4E7C06F
S1133F90843009F441C0D1C0873009F44CC008F41E
S1133FA045C04EC08D3009F464C030F48B3009F440
S1133FB056C008F44FC058C08F3009F464C008F4E8
S1133FC05DC0823109F464C0B8C08B3109F48DC07E
S1133FD080F4873109F475C030F4853109F467C081
S1133FE008F460C069C0893109F475C008F46EC072
S1133FF077C08F3109F48DC030F48D3109F47FC05E
S113400008F478C081C0813209F48DC008F486C0F8
S1134010823209F48DC091C060E97AE280E090E0D8
S1134020089561E97AE280E090E0089566E97AE231
S113403080E090E0089565E97AE280E090E00895F8
S113404067E97AE280E090E0089563E97AE280E04B
S113405090E0089565EB7AE280E090E008956AE6E6
S113406075E280E090E0089562E97AE280E090E011
S1134070089560EA7AE380E090E0089561EA7AE3E3
S113408080E090E0089560E97AE380E090E00895AC
S11340906EE87AE380E090E008956CE87AE280E0EC
S11340A090E0089568EA7AE280E090E008956BEA8F
S11340B07AE280E090E008956CEA7AE280E090E0B1
S11340C008956DEA7AE280E090E008956EEA7AE27B
S11340D080E090E0089560E87AE380E090E008955D
S11340E061E87AE380E090E0089562E87AE380E0B2
S11340F090E0089563E87AE380E090E0089564E84E
S11341007AE380E090E0089565E87AE380E090E067
S1134110089566E87AE380E090E0089567E87AE33A
S113412080E090E0089568E87AE380E090E0089504
S113413069E87AE380E090E0089560E070E0CB0104
S113414008956FEF70E088E090E008956FEB70E4FD
S113415080EE92E8089560E070E0CB0108956CE889
S11341607AE380E090E00895BF92CF92DF92EF92DD
S1134170FF920F931F93CF93DF93EC011BDD6B0131
S11341807C0109811A81BFB6F894A80160E080E03F
S1134190E0DC2FEF80EE90E0215080409040E1F78A
S11341A000C00000A80160E081E0D3DC8FE99CE856
S11341B00197F1F700C00000CFE1D0E0D701C601BC
S11341C00C2E04C0B695A795979587950A94D2F7B7
S11341D080FF15C0A80160E080E0BBDC8FE891E1BE
S11341E00197F1F700C00000A80160E081E0B1DCB4
S11341F087EB94E30197F1F700C0000014C0A80115
S113420060E080E0A6DC8FE891E10197F1F700C05F
S11342100000A80160E081E09CDC8FE891E1019757
S1134220F1F700C00000219748F6A80160E080E0A3
S113423090DC8FE891E10197F1F700C00000A8013C
S113424061E081E086DCBFBE9FEF27E988E0915002
S113425020408040E1F700C00000DF91CF911F9122
S11342600F91FF90EF90DF90CF90BF9008956F92E1
S11342707F928F929F92AF92BF92CF92DF92EF92F2
S1134280FF920F931F93CF93DF93EC014FEF5FE007
S113429060E081E05EDC8881823049F0833009F49B
S11342A079C0813009F079C0CE015EDF7EC0CE01D5
S11342B081DC8B01177399812091882381E0822707
S11342C080938823811118608D818F3009F073C029
S11342D00F2EF4E16F2EF02D72C07FB6F8940F2EDE
S11342E0FDE08F2E912CF02DC701082C02C0880F01
S11342F0991F0A94E2F780239123082C02C0969513
S113430087950A94E2F78823A9F0AE0160E081E082
S113431020DC87EB9BE10197F1F700C00000AE01C0
S113432060E080E016DC87EB9BE10197F1F700C0C9
S1134330000014C0AE0160E080E00BDC87EB9BE181
S11343400197F1F700C00000AE0160E081E001DCFC
S113435087EB9BE10197F1F700C0000091E0891A17
S1134360910810F6AE0161E081E0F3DB7FBECA1470
S1134370DB0449F08FEF97E928E08150904020401A
S1134380E1F700C000008FEFC81AD80AC61408F479
S1134390A4CF0BC0CE01E8DE08C083EF99E09F9361
S11343A08F930E9497090F900F904FEF5FE060E0AA
S11343B081E0CFDB11C00F2EF3E06F2EF02DC12C66
S11343C0D12CEE24E394F12CC92FD0E0A62CB12CEF
S11343D091E0A91AB10881CFDF91CF911F910F917C
S11343E0FF90EF90DF90CF90BF90AF909F908F9011
S11343F07F906F90089540FF02C0962F01C090E017
S113440041FF04C0362F330F330F01C030E0392B86
S113441042FF04C0962F9295907F01C090E0392B03
S113442043FF06C0962F9295990F990F907C01C077
S113443090E0392B44FF02C0962F01C090E045FF65
S113444004C0262F220F220F01C020E0922B46FF2A
S113445004C0262F2295207F01C020E0922B47FF25
S113446006C0262F2295220F220F207C01C020E0B7
S1134470922B50FF02C0262F01C020E051FF04C040
S1134480762F770F770F01C070E0272B52FF04C0FF
S1134490762F7295707F01C070E0272B53FF05C003
S11344A06295660F660F607C01C060E0622B882312
S11344B039F0309385069093A5066093E506089538
S11344C0309386069093A6066093E606089580913D
S11344D08D2390918E23009761F080938B2390938A
S11344E08C2310928A231092892310928D23109288
S11344F08E2320918A23422F50E081E090E002C075
S1134500880F991F2A95E2F720918B2330918C23F1
S113451082239323892B71F180918923882379F055
S11345204F5F5F4F5F934F9381E39BE09F938F9324
S11345300E9497090F900F900F900F900EC04F5F3D
S11345405F4F5F934F9386E19BE09F938F930E940D
S113455097090F900F900F900F9041E050E000905A
S11345608A2302C0440F551F0A94E2F763E0809146
S1134570892341DF80918A238F5F80938A2390E08F
S11345802091BB2030E0215031092817390764F409
S113459080918923882319F087E692E211D581E07E
S11345A08093892310928A2308950F931F93CF93A6
S11345B0DF93CDB7DEB72597CDBFDEBF8C01FC01FD
S11345C0218132818081823039F0813041F0833021
S11345D049F080EF90E208C08BEE90E205C088EFCE
S11345E090E202C08EEF90E23F932F939F938F93BC
S11345F08FEF9AE09F938F930E9471090F900F9011
S11346000F900F900F900F90F8019581913109F45C
S113461018C160F5983009F48FC098F4943009F407
S113462067C048F4923009F4CFC008F0B2C09130AA
S113463009F4C1C084C1963009F475C008F46AC095
S113464060C09C3009F49CC030F49A3009F486C0F0
S113465008F47BC08CC09E30C9F108F440C09F3080
S113466009F4A0C0903109F4E3C069C19A3109F496
S113467015C1B0F4953109F4B7C030F4933109F49D
S1134680E9C008F4F0C0F8C0973109F4BFC008F4D9
S1134690B4C0983109F4C3C0993109F4F6C04FC1CC
S11346A09E3109F41FC130F49C3109F409C108F4A6
S11346B0FEC00FC1903209F427C108F41CC1913225
S11346C009F42BC1923209F431C139C182EF9AE065
S11346D09F938F930E9471090F900F9038C187EEBA
S11346E09AE09F938F930E9471090F900F902FC1AE
S11346F08EED9AE09F938F930E9471090F900F9013
S113470026C183ED9AE09F938F930E9471090F90C5
S11347100F901DC188EC9AE09F938F930E947109BA
S11347200F900F9014C18CEB9AE09F938F930E948B
S113473071090F900F900BC184EB9AE09F938F93B4
S11347400E9471090F900F9002C18FEA9AE09F9323
S11347508F930E9471090F900F90F9C088EA9AE034
S11347609F938F930E9471090F900F90F0C083EA7A
S11347709AE09F938F930E9471090F900F90E7C066
S11347808EE99AE09F938F930E9471090F900F9086
S1134790DEC088E99AE09F938F930E9471090F907D
S11347A00F90D5C08EE89AE09F938F930E94710971
S11347B00F900F90CCC081E89AE09F938F930E9452
S11347C071090F900F90C3C0F80184818F93838186
S11347D08F9382E79AE09F938F930E9471090F90C1
S11347E00F900F900F90B3C08EE69AE09F938F9333
S11347F00E9471090F900F90AAC088E69AE09F93D7
S11348008F930E9471090F900F90A1C081E69AE0E6
S11348109F938F930E9471090F900F9098C08CE51D
S11348209AE09F938F930E9471090F900F908FC00D
S113483086E59AE09F938F930E9471090F900F90E1
S113484086C081E59AE09F938F930E9471090F902F
S11348500F907DC088E49AE09F938F930E94710922
S11348600F900F9074C081E49AE09F938F930E94FD
S113487071090F900F906BC088E39AE09F938F9318
S11348800E9471090F900F9062C086E39AE09F9393
S11348908F930E9471090F900F9059C084E39AE09E
S11348A09F938F930E9471090F900F9050C082E3E1
S11348B09AE09F938F930E9471090F900F9047C0C5
S11348C080E39AE09F938F930E9471090F900F9059
S11348D03EC08EE29AE09F938F930E9471090F90DD
S11348E00F9035C08CE29AE09F938F930E947109D8
S11348F00F900F902CC08AE29AE09F938F930E94AE
S113490071090F900F9023C088E29AE09F938F93D0
S11349100E9471090F900F901AC086E29AE09F934B
S11349208F930E9471090F900F9011C084E29AE056
S11349309F938F930E9471090F900F9008C080E19C
S11349409AE09F938F930E9471090F900F90F80142
S11349508581811109C08CEB9BE09F938F930E940A
S113496097090F900F9086C0813001F587E692E297
S11349709AD3811112C027E632E24FEF68EC70E05F
S113498080E090E0C4D2882341F0F80181819281D3
S113499080938D2390938E236DC088E79BE09F9333
S11349A08F930E9497090F900F9064C08230B1F5E5
S11349B0F801638174814181528140FD0FC081E01F
S11349C090E0E1E0F0E09F01082E02C0220F331FC7
S11349D00A94E2F724233523232BD9F07F936F9392
S11349E085E79BE09F938F931F9285E08F93CE0181
S11349F001969F938F930E941734CDBFDEBF9FEF24
S1134A00EBE4FDE19150E040F040E1F700C000002C
S1134A10F6CF019688309105B1F62CC0C801CAD8EA
S1134A209F938F937F936F93F80182818F938181FA
S1134A308F9384E59BE09F938F930E947109CDBF70
S1134A40DEBFF8018581833059F480818D7F813008
S1134A5039F4C8010CDCC8010ADCC80108DC0AC04E
S1134A60C80105DC8BE49BE09F938F930E94970918
S1134A700F900F902596CDBFDEBFDF91CF911F9190
S1134A800F910895FC0182811F928F9381811F925F
S1134A908F93808190E08053984F9F938F9383EE00
S1134AA09BE09F938F930E9471098DB79EB70896E0
S1134AB08DBF9EBF0895FC0185811F928F938481D1
S1134AC01F928F9383811F928F9383ED9BE09F931B
S1134AD08F930E9471098DB79EB708968DBF9EBFB4
S1134AE00895CF93DF93EC01CDDFCE01E4DFDF91B6
S1134AF0CF910895683168F44C3368F42C3368F42A
S1134B003FB7F894FC016383448325833FBF81E06E
S1134B10089580E0089580E0089580E00895DC0120
S1134B20FB013FB7F89491E02DC02917C8F1119605
S1134B304C9111972181241758F180E090E042179D
S1134B4020F112964C911297228181E02417E8F00B
S1134B5080E04217D0F013962C911397438181E0A3
S1134B60421798F080E0241780F081E014964C916D
S1134B7014972481241748F015964C911597258194
S1134B80241710F080E001C090E0911103C009C027
S1134B9081E007C02C919081921738F681E001C022
S1134BA080E03FBF08958530B9F038F4823081F059
S1134BB0833091F0813051F40FC08A3069F020F4D1
S1134BC08750823018F408C08C3031F08EE108959B
S1134BD0637021F08CE108958FE108958DE10895CB
S1134BE0FF920F931F93CF93DF93EC018D818C334E
S1134BF058F09C819F5F01C0922F8C5321E0290FB4
S1134C008C33D0F79C838D838C818C3338F09B81DB
S1134C108C539F5F8C33E0F79B838C838B8188312B
S1134C2038F09A8188519F5F8831E0F79A838B83AB
S1134C30F88005C0081B0A8389818F5F89830A81F4
S1134C4019816F2D812FAFDF8017A0F31D3038F04D
S1134C5088811C508F5F1D30E0F719838883DF91B2
S1134C60CF911F910F91FF9008951F920F920FB64D
S1134C700F92112408B60F9218BE09B60F9219BEEE
S1134C800BB60F921BBE2F933F934F935F936F937B
S1134C907F938F939F93AF93BF93EF93FF938091F1
S1134CA0902390919123FC01358120918F23230F30
S1134CB0258396DFFF91EF91BF91AF919F918F91E3
S1134CC07F916F915F914F913F912F910F900BBE08
S1134CD00F9009BE0F9008BE0F900FBE0F901F904B
S1134CE01895CF93FC01CFB7F8948081680F608347
S1134CF08181480F41838281280F2283CF0170DF95
S1134D00CFBFCF910895AF92BF92CF92EF920F93FE
S1134D101F93CF93DF93653608F53FEF340F3C3094
S1134D20F8F42223F9F0122FD42FC62F5C01842F1C
S1134D303ADF8117C8F00831C8F48BE38E15C0F050
S1134D408C15C0F08FB7F894F501C083D18312831A
S1134D500383E482C5828FBF81E00DC080E00BC075
S1134D6080E009C080E007C080E005C080E003C0A7
S1134D7080E001C080E0DF91CF911F910F91EF900F
S1134D80CF90BF90AF900895EF92FF921F93CF936F
S1134D90DF936536B8F43FEF340F3C30A8F4222398
S1134DA0A9F0122FD42FC62F7C01842FFCDE81178B
S1134DB078F08FB7F894F701C083D18312838FBF43
S1134DC081E007C080E005C080E003C080E001C04E
S1134DD080E0DF91CF911F91FF90EF900895CF93E2
S1134DE0DF93FC01608186EF860F8A35A0F4818110
S1134DF08D3098F4EF01D7DE9A81891780F08B818A
S1134E00883178F48C818C3370F481E09D819C33FB
S1134E1058F080E009C080E007C080E005C080E071
S1134E2003C080E001C080E0DF91CF9108958F92AC
S1134E309F92AF92BF92CF92EF92FF920F931F93E4
S1134E40CF93DF934C01D62FF42EC22F5801E0925A
S1134E508F238093902390939123C1DF811108C005
S1134E60C12CE12C00E021E041E06AE0C4014BDF09
S1134E70E0E4F0E08381817F81608D2B8383E0E037
S1134E80F4E0818180FDFDCFE0E0F4E08281807F69
S1134E904F2D482B4283818180FDFDCF1092000469
S1134EA0E0E0F4E0818180FDFDCFA0920A04B0929D
S1134EB00B04E0E0F4E0818180FDFDCF10920C044E
S1134EC010920D04E0E0F4E0818180FDFDCF1092AA
S1134ED0080410920904E0E0F4E0818180FDFDCF34
S1134EE0E0E0F4E08081887FC82BC083DF91CF911C
S1134EF01F910F91FF90EF90CF90BF90AF909F9034
S1134F008F900895809392239093932308958F9282
S1134F109F92AF92BF92EF92FF920F931F93CF9302
S1134F20DF934B015C017901809196239091972343
S1134F30A0919823B0919923892B8A2B8B2B81F0F4
S1134F40E1EAF3E2A2E7B4E281E090E0EC0100815F
S1134F50118122813381012B022B032BC1F402C066
S1134F60C0E0D0E08BE08C9FF0018D9FF00D112408
S1134F70EC56FC4DE082F18282829382A482B58257
S1134F8086829782A086B186428781E00EC0019610
S1134F903B96EA17FB07D1F68EE09CE09F938F9334
S1134FA00E94F0330F900F9080E0DF91CF911F911A
S1134FB00F91FF90EF90BF90AF909F908F900895C6
S1134FC00F931F93CF93DF93E4E9F3E2AEE9B3E2E7
S1134FD040E754E260E02081318128173907A1F4C9
S1134FE00281138124813581012B022B032B61F073
S1134FF01082118212821382148215821682178201
S1135000108611861C926F5F3B961B96E417F5077A
S113501011F7862FDF91CF911F910F910895209161
S11350209423309195232817390769F0EFE9F3E2C7
S113503060E774E221E030E0D901408151814817F2
S1135040590761F402C0A0E0B0E02BE02A9FC00140
S11350502B9F900D11248C569C4D08952F5F3F4F2C
S11350603B96E617F70741F780E090E00895D7DF15
S1135070009759F0FC014281538164817581468314
S113508057836087718781E0089580E00895C7DFC2
S1135090009739F0FC01168217821086118681E090
S11350A0089580E00895E4E9F3E240E754E260E023
S11350B0208131812817390709F46F5F3B96E41783
S11350C0F507B1F7862F0895AADF009731F0FC01A8
S11350D06281738184819581089560E070E0CB01E1
S11350E00895CF92DF92EF92FF926A017B0197DFDE
S11350F0009739F0FC01C682D782E086F18681E010
S113510001C080E0FF90EF90DF90CF900895CF939F
S1135110DF93CDB7DEB72997CDBFDEBF90901E20B9
S1135120E0E0F9E08FEF9FEF86A397A38FE097E28B
S113513080A791A785E0808388E0818781E08783C9
S1135140E8E4F0E08081817F808383EF9BE09F939C
S11351508F930E94F0330F900F90412C512C320109
S113516019821A821B821C82C12CD12C760168946C
S1135170882483F889860F2EF8E42F2E312CF02D05
S113518060912009709121092985209309096F5F95
S11351907F4FCB01A0E0B0E029813A814B815C8153
S11351A0280F391F4A1F5B1F29833A834B835C8373
S11351B0BC01CD016C0D7D1D8E1D9F1D24EF31E0C2
S11351C040E050E00E946F3269017A0104E913E281
S11351D00F2EFEE9AF2EF3E2BF2EF02D9801D80179
S11351E012964D915D916D917C91159741155105E4
S11351F06105710509F444C016968D919D910D9039
S1135200BC91A02DC816D906EA06FB0680F1D5018B
S11352108C91813071F4F801108211821282138210
S1135220148215821682178210861186D5011C926B
S113523017C0823014F081508C93F90186819781D4
S1135240A085B185840F951FA61FB71F8C159D05DA
S1135250AE05BF05B8F39F0186839783A087B18706
S1135260A895D901ED91FC911995A89509C08C19BF
S11352709D09AE09BF09F80186839783A087B1878A
S1135280055F1F4FFBE0AF0EB11C24E2003712078D
S113529009F0A4CF60912009709121098092090935
S11352A06F5F7F4F6B01E12CF12C4C0C5D1C6E1C6D
S11352B07F1CB0901E209B1409F459C069817A8127
S11352C08B819C81640D751D861D971D24EF31E033
S11352D040E050E00E946F322D833E834F83588715
S11352E0C301B20124EF31E040E050E00E946F328C
S11352F029013A010091922310919323ED81FE81BB
S1135300D801ED93FC93119712962D933C93139728
S113531069817A818B819C8124EF31E040E050E007
S11353200E946F32D80114962D933C931597C301B4
S1135330B20162D420E030E048EC52E4EBD42B011B
S11353403C016D817E818F81988556D49B01AC018F
S1135350C301B201B8D3F80166837783808791874C
S113536019821A821B821C82412C512C3201A8956D
S1135370D1018C9181608C9378948895F10180811E
S11353808E7F8083A8959B2CFBCE1F920F920FB625
S11353900F92112408B60F9218BE09B60F9219BEC7
S11353A00BB60F921BBE2F933F934F935F936F9354
S11353B07F938F939F93AF93BF93EF93FF9383EC6C
S11353C090E20E94280B0E94E90D0E94241CFF9188
S11353D0EF91BF91AF919F918F917F916F915F9169
S11353E04F913F912F910F900BBE0F9009BE0F90DC
S11353F008BE0F900FBE0F901F901895CF93DF93A8
S1135400E0917024F09171248481882309F4B6C05A
S1135410A081B18114968C91149782FF0CC0EF0186
S1135420C85BDF4F94E09883E95BFF4F1082846090
S113543014968C937AC183FF0CC0EF01C85BDF4FD5
S113544093E09883E95BFF4F1082886014968C93F5
S11354506CC186FF46C0EF01C65BDF4F9881219681
S1135460288114968C91149784FF0CC083E01396C2
S11354708C93DF01A85BBF4F85E08C93E95BFF4F02
S1135480108253C1EF01C45BDF4F8881891750F448
S1135490888191E0980F9883E80FF11D8781179612
S11354A08C9343C1EF01C35BDF4F8881821738F4CB
S11354B0E75BFF4F8081816016968C9336C183E051
S11354C013968C93DF01A85BBF4F81E08C931197F7
S11354D01C920580F681E02D309709F426C11995B8
S11354E024C188230CF041C0EF01C35BDF4F8881E6
S11354F0803250F4888191E0980F988317969C919C
S1135500E80FF11D97A30BC083E013968C93DF0182
S1135510A85BBF4F82E08C93E95BFF4F1082E09160
S11355207024F0917124DF01A55BBF4F9C9112960A
S11355308C91891730F40190F081E02D82E083830F
S1135540F4C0A081B18187E013968C93DF01A85B3E
S1135550BF4F81E08C9311971C920580F681E02D5A
S1135560309709F4E2C01995E0C0DF01A85BBF4F92
S113557086E08C93E95BFF4F1082D7C0A081B18194
S11355801A968C911A9782FF0DC0DF01A25BBF4F60
S11355901C9211961C92179784E08C93E95BFF4F41
S11355A01082C3C083FF0DC0DF01A25BBF4F1C92FA
S11355B011961C92179783E08C93E95BFF4F10823E
S11355C0B4C0282F2074982F91749134B9F4EF014A
S11355D0C95BDF4F81E088832196188218968C91ED
S11355E018978B7F18968C93DF01A15BBF4F1C9299
S11355F00190F081E02D83E0818797C02223E9F0B8
S113560018968C9118978B7F18968C93A081B181F2
S11356101A968C911A9780641A968C93DF01A85B72
S1135620BF4F81E08C9311971C920580F681E02D89
S1135630309709F47AC0199578C088230CF06DC0AE
S11356401A968C911A9781FF3EC0EF01C15BDF4F20
S113565088818823B9F01A968C911A9784FF12C016
S113566082E019968C93DF01A85BBF4F81E08C9395
S113567011971C920580F681E02D309709F455C0EE
S1135680199553C0EF01C15BDF4F8881803280F4EC
S1135690888191E0980F9883EF01C80FD11D8F8105
S11356A01C968C930190F081E02D83E081873DC0AE
S11356B082E019968C93DF01A85BBF4F8C93E95B62
S11356C0FF4F108232C018968C91189784601896F8
S11356D08C93DF01A25BBF4F8C91803280F48C915C
S11356E091E0980F9C93A081B1811C969C911C978A
S11356F0E80FF11D97A383E019968C9316C0A0813F
S1135700B18186E019968C93DF01A85BBF4F82E0DC
S11357108C93E95BFF4F108208C0DF01A85BBF4F89
S113572085E08C93E95BFF4F1082DF91CF91089560
S11357306F927F928F929F92AF92BF92CF92EF928D
S1135740FF920F93CF93DF93CDB7DEB73C01FA01FD
S113575088E3808B818B83E08583818360927024CE
S113576070927124D30112964D935C9313971496FF
S11357702C9314971596ED92FC9216976D937C9347
S11357801197222329F1FB011082ED90FC90888966
S11357909989AA89BB899C01AD01220F331F441F3B
S11357A0551FC501B4019BD62550D70115962C93DE
S11357B0D301ED91FC9111978C2D88638183ED9138
S11357C0FC9111971282ED91FC9181E0848313C0C6
S11357D0F301E25BFF4F10823196108238971082FA
S11357E0319610828C2D8863FB018087D301ED9163
S11357F0FC91000F0387DF91CF910F91FF90EF9001
S1135800CF90BF90AF909F908F907F906F900895AE
S1135810E0917024F0917124DF01A95BBF4F9C914A
S1135820911124C091E09C9311961C92880F1196BB
S11358308C9311966C9311964C9311961C9211961D
S11358401C92662341F014978C918E7F0190F08115
S1135850E02D86830895442349F0DF01A75BBF4F01
S11358608C9181600190F081E02D868308951F92D0
S11358700F920FB60F92112408B60F9218BE09B6F4
S11358800F9219BE0BB60F921BBE2F933F934F93EB
S11358905F936F937F938F939F93AF93BF93EF9394
S11358A0FF93ACDDFF91EF91BF91AF919F918F91E9
S11358B07F916F915F914F913F912F910F900BBE0C
S11358C00F9009BE0F9008BE0F900FBE0F901F904F
S11358D018951F920F920FB60F92112408B60F92CB
S11358E018BE09B60F9219BE0BB60F921BBE2F93AA
S11358F03F934F935F936F937F938F939F93AF9354
S1135900BF93EF93FF937ADDFF91EF91BF91AF9136
S11359109F918F917F916F915F914F913F912F91C3
S11359200F900BBE0F9009BE0F9008BE0F900FBED4
S11359300F901F9018951F920F920FB60F9211247B
S113594008B60F9218BE09B60F9219BE0BB60F9285
S11359501BBE2F933F934F935F936F937F938F93CC
S11359609F93AF93BF93EF93FF9348DDFF91EF9124
S1135970BF91AF919F918F917F916F915F914F9163
S11359803F912F910F900BBE0F9009BE0F9008BE50
S11359900F900FBE0F901F9018951F920F920FB685
S11359A00F92112408B60F9218BE09B60F9219BEB1
S11359B00BB60F921BBE2F933F934F935F936F933E
S11359C07F938F939F93AF93BF93EF93FF9316DDD2
S11359D0FF91EF91BF91AF919F918F917F916F91C3
S11359E05F914F913F912F910F900BBE0F9009BE85
S11359F00F9008BE0F900FBE0F901F9018951F9226
S1135A000F920FB60F92112408B60F9218BE09B662
S1135A100F9219BE0BB60F921BBE2F933F934F9359
S1135A205F936F937F938F939F93AF93BF93EF9302
S1135A30FF93E4DCFF91EF91BF91AF919F918F9120
S1135A407F916F915F914F913F912F910F900BBE7A
S1135A500F9009BE0F9008BE0F900FBE0F901F90BD
S1135A6018951F920F920FB60F92112408B60F9239
S1135A7018BE09B60F9219BE0BB60F921BBE2F9318
S1135A803F934F935F936F937F938F939F93AF93C2
S1135A90BF93EF93FF93B2DCFF91EF91BF91AF916E
S1135AA09F918F917F916F915F914F913F912F9132
S1135AB00F900BBE0F9009BE0F9008BE0F900FBE43
S1135AC00F901F9018950CD0EBC0E3D040F0DAD0C3
S1135AD030F021F45F3F19F0CCC0511115C1CFC093
S1135AE0F0D098F39923C9F35523B1F3951B550BC3
S1135AF0BB27AA2762177307840738F09F5F5F4F9D
S1135B00220F331F441FAA1FA9F333D00E2E3AF0DD
S1135B10E0E830D091505040E695001CCAF729D0F7
S1135B20FE2F27D0660F771F881FBB1F2617370746
S1135B304807AB07B0E809F0BB0B802DBF01FF2776
S1135B4093585F4F2AF09E3F510568F092C0DCC025
S1135B505F3FECF3983EDCF3869577956795B795B0
S1135B60F7959F5FC9F7880F911D9695879597F9CB
S1135B700895E1E0660F771F881FBB1F6217730744
S1135B808407BA0720F0621B730B840BBA0BEE1F59
S1135B9088F7E095089504D06894B111B5C00895CC
S1135BA098D088F09F5790F0B92F9927B751A0F05B
S1135BB0D1F0660F771F881F991F1AF0BA95C9F79D
S1135BC012C0B13081F09FD0B1E008959CC0672F1E
S1135BD0782F8827B85F39F0B93FCCF3869577954D
S1135BE06795B395D9F73EF4909580957095619536
S1135BF07F4F8F4F9F4F0895E89409C097FB3EF461
S1135C0090958095709561957F4F8F4F9F4F992305
S1135C10A9F0F92F96E9BB279395F6958795779583
S1135C206795B795F111F8CFFAF4BB0F11F460FF43
S1135C301BC06F5F7F4F8F4F9F4F16C0882311F09B
S1135C4096E911C0772321F09EE8872F762F05C0AF
S1135C50662371F096E8862F70E060E02AF09A954A
S1135C60660F771F881FDAF7880F9695879597F93F
S1135C70089597F99F6780E870E060E008959FEFCA
S1135C8080EC089500240A941616170618060906CF
S1135C90089500240A94121613061406050608959E
S1135CA0092E0394000C11F4882352F0BB0F40F426
S1135CB0BF2B11F460FF04C06F5F7F4F8F4F9F4F66
S1135CC0089557FD9058440F551F59F05F3F71F0E8
S1135CD04795880F97FB991F61F09F3F79F087954F
S1135CE00895121613061406551FF2CF4695F1DFD8
